S0120000696D616765732F617072732E73313987
S11300000C9458040C9475040C9475040C947504A5
S11300100C9475040C9475040C9475040C94750478
S11300200C9475040C9475040C9475040C94750468
S11300300C9475040C9475040C94B4140C94750409
S11300400C9475040C9499160C9443160C94041691
S11300500C9475040C946E1B0C9475040C94750428
S11300600C9475040C94750466642D3E777269745F
S11300706500626572746F732F6B65726E2F6B66A9
S1130080696C652E680066642D3E72656164006269
S11300906572746F732F6B65726E2F6B66696C6516
S11300A02E68003000626572746F732F6B65726E18
S11300B02F6B66696C652E630066642D3E666C75F5
S11300C0736800626572746F732F6B65726E2F6B49
S11300D066696C652E680066642D3E7365656B0009
S11300E0626572746F732F6B65726E2F6B66696CC9
S11300F0652E680066642D3E636C6561726572727C
S113010000626572746F732F6B65726E2F6B666914
S11301106C652E6800666400626572746F732F6B81
S113012065726E2F6B66696C652E63006964782056
S11301303C2053494E5F4C454E00626572746F73A8
S11301402F6E65742F6166736B2E630080818384C8
S11301508687898A8C8E8F9192949597989A9B9D85
S11301609EA0A2A3A5A6A7A9AAACADAFB0B2B3B5F1
S1130170B6B7B9BABCBDBEC0C1C2C4C5C6C8C9CA77
S1130180CBCDCECFD0D2D3D4D5D6D7D9DADBDCDD24
S1130190DEDFE0E1E2E3E4E5E6E7E8E9EAEAEBEC06
S11301A0EDEEEEEFF0F1F1F2F3F3F4F5F5F6F6F728
S11301B0F8F8F9F9FAFAFAFBFBFCFCFCFDFDFDFD8D
S11301C0FEFEFEFEFEFFFFFFFFFFFFFF74696D658D
S11301D0725F696E697469616C697A6564006265ED
S11301E072746F732F6E65742F6166736B2E630068
S11301F066642D3E5F74797065203D3D204B465406
S11302005F4146534B00626572746F732F6E657461
S11302102F6166736B2E680066642D3E6572726F83
S11302207200626572746F732F6B65726E2F6B66EA
S1130230696C652E680025733A204368616E6E65AB
S11302406C206572726F72205B253034785D0A0011
S113025066642D3E636C65617265727200626572DC
S1130260746F732F6B65726E2F6B66696C652E6885
S11302700025733A204F6E6C7920554920667261CF
S11302806D6573206172652068616E646C65642CB1
S113029020676F74205B253032585D0A0025733A5D
S11302A0204F6E6C79206672616D65732077697476
S11302B0686F7574206C61796572332070726F7425
S11302C06F636F6C206172652068616E646C656435
S11302D02C20676F74205B253032585D0A007061F2
S11302E0746800626572746F732F6E65742F617821
S11302F032352E6300706174685F6C656E203E3D1C
S1130300203200626572746F732F6E65742F61788A
S113031032352E63006374782D3E6372635F6F75AC
S113032074203D3D20415832355F4352435F434F73
S1130330525245435400626572746F732F6E657434
S11303402F617832352E63006973616C6E756D2888
S11303506329207C7C2063203D3D202720270062E8
S11303606572746F732F6E65742F617832352E63E6
S11303700063747800626572746F732F6E65742FF6
S1130380617832352E63006368616E6E656C00625D
S11303906572746F732F6E65742F617832352E63B6
S11303A0006275665F706F696E746572203E3D20F1
S11303B062756600626572746F732F6D7761726522
S11303C02F666F726D617477722E6300000089115D
S11303D012239B322446AD573665BF74488CC19DA9
S11303E05AAFD3BE6CCAE5DB7EE9F7F88110080189
S11303F093331A22A5562C47B7753E64C99C408D89
S1130400DBBF52AEEDDA64CBFFF976E802218B3024
S1130410100299132667AF763444BD554AADC3BC68
S1130420588ED19F6EEBE7FA7CC8F5D983310A2048
S113043091121803A7772E66B5543C45CBBD42AC48
S1130440D99E508FEFFB66EAFDD874C904428D53E0
S113045016619F702004A9153227BB364CCEC5DF28
S11304605EEDD7FC6888E1997AABF3BA85520C4308
S113047097711E60A1142805B3373A26CDDE44CF08
S1130480DFFD56ECE9986089FBBB72AA06638F72A4
S113049014409D512225AB343006B9174EEFC7FEE8
S11304A05CCCD5DD6AA9E3B8788AF19B87730E62C8
S11304B095501C41A3352A24B1163807CFFF46EEC8
S11304C0DDDC54CDEBB962A8F99A708B0884819570
S11304D01AA793B62CC2A5D33EE1B7F04008C919B8
S11304E0522BDB3A644EED5F766DFF7C8994008578
S11304F09BB712A6ADD224C3BFF136E0C118480998
S1130500D33B5A2AE55E6C4FF77D7E6C0AA583B413
S1130510188691972EE3A7F23CC0B5D14229CB3877
S1130520500AD91B666FEF7E744CFD5D8BB502A437
S113053099961087AFF326E2BDD034C1C3394A2857
S1130540D11A580BE77F6E6EF55C7C4D0CC685D7CF
S11305501EE597F42880A1913AA3B3B2444ACD5B37
S11305605669DF78600CE91D722FFB3E8DD604C7F7
S11305709FF516E4A9902081BBB332A2C55A4C4B17
S1130580D7795E68E11C680DF33F7A2E0EE787F693
S11305901CC495D52AA1A3B03882B193466BCF7AF7
S11305A05448DD59622DEB3C700EF91F8FF706E6B7
S11305B09DD414C5ABB122A0B9923083C77B4E6AD7
S11305C0D5585C49E33D6A2CF11E780F74696D655A
S11305D0722D3E6D6167696320213D2054494D456C
S11305E0525F4D414749435F414354495645006278
S11305F06572746F732F6472762F74696D65722ED1
S113060063002674696D65722D3E6C696E6B0062C1
S11306106572746F732F6472762F74696D65722EB0
S11306206300266E6F64652D3E6C696E6B006265B7
S113063072746F732F6472762F74696D65722E6392
S1130640002674696D65722D3E6C696E6B0062657F
S113065072746F732F6472762F74696D65722E6372
S1130660002674696D65722D3E6C696E6B0062655F
S113067072746F732F6472762F74696D65722E6352
S1130680004952515F454E41424C4544282900627D
S11306906572746F732F6472762F74696D65722E30
S11306A063002174696D65725F696E697469616C58
S11306B0697A656400626572746F732F6472762F51
S11306C074696D65722E6300756E6974203C2053E5
S11306D045525F434E5400626572746F732F6370AA
S11306E0752F6176722F6472762F7365725F6176EF
S11306F0722E630066642D3E5F74797065203D3D03
S1130700204B46545F53455249414C006265727414
S11307106F732F6472762F7365722E6800706F7218
S1130720742D3E69735F6F70656E00626572746FDD
S1130730732F6472762F7365722E6300756E6974FD
S1130740203C20636F756E746F66287365725F68F2
S1130750616E646C65732900626572746F732F64D3
S113076072762F7365722E63002166642D3E697361
S11307705F6F70656E00626572746F732F6472765A
S11307802F7365722E630066642D3E68772D3E7468
S11307907862756666657200626572746F732F6441
S11307A072762F7365722E630066642D3E68772D12
S11307B03E727862756666657200626572746F7304
S11307C02F6472762F7365722E630073697A6520C5
S11307D03E203100626572746F732F737472756397
S11307E0742F6669666F6275662E68006368203CC4
S11307F03D203500617072732F68772F68775F61D1
S113080066736B2E63006275665F706F696E7465E4
S113081072203E3D2062756600626572746F732FAC
S11308206D776172652F666F726D617477722E6376
S1130830000A0A2A2A2A20426552544F532044426D
S113084047205354415254202A2A2A0A00417373E0
S1130850657274696F6E206661696C65643A200024
S11308603A2000257328290A00257328293A2000F4
S1130870496E76616C6964207074723A2000203D80
S113088020307825700A0057616C6C2062726F6B9F
S1130890656E3A20005B25645D2028307825702938
S11308A0203D203078256C780A002530325800002D
S11308B011241FBECFEFD8E0DEBFCDBF11E0A0E012
S11308C0B1E0E6EAFFE402C005900D92AA3CB1074C
S11308D0D9F714E0AAECB1E001C01D92A43CB10721
S11308E0E1F70E949C1A0C94D1270C940000FF920B
S11308F00F931F93CF93DF930F92CDB7DEB7F82EEC
S11309008B018983DB0112968D919C91139700973B
S113091041F488E690E062E770E04FEE50E00E9418
S11309202F25D8011296ED91FC911397C801BE01B1
S11309306F5F7F4F41E050E009958130910519F4D4
S11309408F2D90E002C08FEF9FEF0F90DF91CF913A
S11309501F910F91FF9008950F931F93CF93DF93EF
S11309600F92CDB7DEB78C01DC018D919C9111976C
S1130970009741F486E890E06FE870E049EE50E0BB
S11309800E942F25D801ED91FC91C801BE016F5F33
S11309907F4F41E050E009958130910519F4898138
S11309A090E002C08FEF9FEF0F90DF91CF911F91E6
S11309B00F910895CF93DF93CDB7DEB79E01275FE4
S11309C03F4F8F81988567E774E04D815E810E9477
S11309D0720CDF91CF9108959FB7F89483E085BBA3
S11309E01092B60014BC15BC82E084BD85B583604A
S11309F085BD16BC8CE787BDEEE6F0E080818E7F76
S1130A0080838081826080839FBF0895CF92DF922C
S1130A10EF92FF920F931F93CF93DF93EC016B013F
S1130A207A0188899989AA89BB898B3423E592073D
S1130A3026E4A20721E4B20741F080EF91E066E0EA
S1130A4072E049EC50E00E942F25860145C08FB723
S1130A50F8944091BA045091BB046091BC04709125
S1130A60BD048FBF14C02FB7F8948091BA0490913D
S1130A70BB04A091BC04B091BD042FBF841B950B93
S1130A80A60BB70B181619061A061B069CF1EFB72E
S1130A90F8948EA99FA928AD39ADEFBF82179307AB
S1130AA011F32FB7F894EEA9FFA98CAD9DADE8170B
S1130AB0F90731F48AAD9BAD9FAB8EAB808105C045
S1130AC0EEA9FFA98191FFABEEAB2FBFF801819393
S1130AD08F010894E108F108E114F10459F04FB7CB
S1130AE0F8948EA99FA928AD39AD4FBF82179307FB
S1130AF009F0ADCF0C191D09C801DF91CF911F91E9
S1130B000F91FF90EF90DF90CF9008952F923F9236
S1130B104F925F926F927F928F929F92AF92BF9209
S1130B20CF92DF92EF92FF920F931F93CF93DF93B5
S1130B30EC018B01D42EC52E88899989AA89BB8999
S1130B408B3423E5920726E4A20721E4B20741F09F
S1130B5080EF91E066E072E049EC50E00E942F25BE
S1130B60ED2CFC2C5801DE01A258BF4F8E010F5210
S1130B701F4F80E4882E912C61E098ED692E712C32
S1130B806C0E7D1E2DE2422E512C3AED232E312C7B
S1130B902C0E3D1E68C07FB7F8948D919C911197DF
S1130BA08E179F0759F412968D919C911397169660
S1130BB02D913C9117978217930781F012964D91CE
S1130BC05C9113978D919C911197019721E030E0EE
S1130BD04817590729F020E030E002C021E030E056
S1130BE07FBF21153105B9F6F50181915F014FB73A
S1130BF0F8941296ED91FC911397808312968D913F
S1130C009C91139716962D913C91179782179307F1
S1130C1029F414968D919C91159705C012968D9187
S1130C209C911397019613969C938E9312974FBFA2
S1130C30F8018081882361F498A68FA21EA21DA2C8
S1130C401CA26083F301518240822B9A6093C304F7
S1130C508FB7F89428E030E0F101318320838FBF0F
S1130C600894E108F108E114F10429F01496ED91D7
S1130C70FC91159790CF8D2D9C2DDF91CF911F91D5
S1130C800F91FF90EF90DF90CF90BF90AF909F9027
S1130C908F907F906F905F904F903F902F9008952A
S1130CA0CF93DF93EC0188899989AA89BB898B3416
S1130CB023E5920726E4A20721E4B20741F080EF7E
S1130CC091E066E072E049EC50E00E942F25CF529B
S1130CD0DF4F88818823E9F780E090E0DF91CF91AE
S1130CE00895CF93DF93EC0188899989AA89BB89F8
S1130CF08B3423E5920726E4A20721E4B20741F0EE
S1130D0080EF91E066E072E049EC50E00E942F250C
S1130D102FB7F894CE52DF4F888199812FBFDF918E
S1130D20CF910895CF93DF93EC0188899989AA899B
S1130D30BB898B3423E5920726E4A20721E4B2079A
S1130D4041F080EF91E066E072E049EC50E00E94EF
S1130D502F258FB7F894CE52DF4F198218828FBF98
S1130D60DF91CF910895CF93DF93DC012D9AEC01AD
S1130D70C853DF4F48815981FC01EA53FF4F518327
S1130D8040839996ED91FC919A979F968D919C91B1
S1130D90D097E817F90751F49D968D919C919E97F1
S1130DA09A969C938E939997208109C09996ED9178
S1130DB0FC919A9721919A96FC93EE939997260227
S1130DC090011124359527953595279539832883E6
S1130DD0ED01C453DF4F88819981FD01E653FF4F34
S1130DE09183808395958795840F951F820F931F18
S1130DF099838883FD01E253FF4F21E018161906F9
S1130E000CF020E08081880F822B80839B96ED91EB
S1130E10FC919C9760839B962D913C919C979F9607
S1130E208D919C91D0972817390729F49D968D911F
S1130E309C919E9705C09B968D919C919C97019641
S1130E409C969C938E939B97FD01E253FF4F908158
S1130E50892F86958927FD01E153FF4F80FF07C045
S1130E608081803214F48F5F01C08150808380813F
S1130E70885F808380340CF45EC18F738083FD01AE
S1130E80E053FF4F8081880F8083ED01C253DF4F11
S1130E9098819770292F2550233010F0933011F446
S1130EA0816080839081892F8695892791E080FDD8
S1130EB090E0FD01EC52FF4F2081220F292B20836B
S1130EC02E3709F056C0D6962D913C91D797DA96D5
S1130ED08D919C91DB972817390759F4D8962D9159
S1130EE03C91D997DC968D919C91DD972817390711
S1130EF091F0D8964D915C91D997D6962D913C91CD
S1130F00D7972150304081E090E04217530729F0F1
S1130F1080E090E002C081E090E0009731F5D8963F
S1130F20ED91FC91D9978EE78083D8962D913C91D1
S1130F30D997DC968D919C91DD972817390729F470
S1130F40DA968D919C91DB9705C0D8968D919C91F2
S1130F50D9970196D9969C938E93D897FD01EC521C
S1130F60FF4F81E0838361E0D2C0FD01EC52FF4F6B
S1130F70CCC030E0C9018F7790708F37910511F4A0
S1130F801382D9C08381882309F4D5C0C9018F7322
S1130F9090708E33910509F4CEC020FF03C0828186
S1130FA080688283FD01EC52FF4F81818F5F8183D2
S1130FB09281883008F4B3C0892F8E57823018F09C
S1130FC09B3109F052C0D6962D913C91D797DA9671
S1130FD08D919C91DB972817390759F4D8962D9158
S1130FE03C91D997DC968D919C91DD972817390710
S1130FF091F0D8964D915C91D997D6962D913C91CC
S1131000D7972150304081E090E04217530729F0F0
S113101080E090E002C081E090E0009701F5D8966E
S1131020ED91FC91D9978BE18083D8962D913C91D9
S1131030D997DC968D919C91DD972817390729F46F
S1131040DA968D919C91DB9705C0D8968D919C91F1
S1131050D9970196D9969C938E93D89706C0FD0193
S1131060EC52FF4F138260E001C061E0D6962D91EF
S11310703C91D797DA968D919C91DB972817390785
S113108059F4D8962D913C91D997DC968D919C91E9
S1131090DD972817390791F0D8964D915C91D9972F
S11310A0D6962D913C91D7972150304081E090E025
S11310B04217530729F080E090E002C081E090E0FD
S11310C0FD01EC52FF4F009701F58281D896ED9116
S11310D0FC91D9978083D8962D913C91D997DC9631
S11310E08D919C91DD972817390729F4DA968D9113
S11310F09C91DB9705C0D8968D919C91D9970196C8
S1131100D9969C938E93D89702C0138260E0FD0118
S1131110EC52FF4F12821182662321F00CC0969587
S1131120928309C0AE52BF4F8D919C9111978160FB
S113113011969C938E932D98DF91CF910895CF9320
S1131140DF93FC012D9A80A1882309F0C5C082A1F8
S1131150882309F094C0DF01A258BF4F8D919C9160
S1131160119712962D913C9113978217930749F486
S1131170DF01A652BF4F8D919C911197009709F4FE
S113118053C083A1882309F414A281E083A3DF015F
S1131190A852BF4F8D919C911197009779F5DF016B
S11311A0A258BF4F2D913C91119712968D919C910D
S11311B013972817390739F4DF01A652BF4F8D91D1
S11311C09C9111971BC0CD91DC91119716968D912E
S11311D09C911797C817D90749F414968D919C913F
S11311E0159711969C938E9388810DC0CD91DC91B7
S11311F0119789911196DC93CE9305C001971196AE
S11312009C938E938EE781A381A18B3191F5DF01AD
S1131210A258BF4F2D913C91119712968D919C919C
S113122013972817390749F42B981092C304EF52E7
S1131230FF4F10822D9880E07DC0CD91DC911197F5
S113124016968D919C911797C817D90749F414964F
S11312508D919C91159711969C938E93888107C0CC
S1131260CD91DC91119789911196DC93CE9381A352
S113127004C08E57823008F413A281E082A383A1B4
S1131280882389F084A1853070F014A287A190A5E9
S11312908034910519F485E790E002C080E490E081
S11312A090A787A317C022A181A1822321F084A142
S11312B08F5F84A30DC014A287A190A580349105EB
S11312C019F485E790E002C080E490E090A787A33A
S11312D0220F22A388E080A387A190A525A136A18F
S11312E0820F931F917096A385A380A1815080A340
S11312F02D98C5A1D6A122E0C030D20740F08CE2DF
S113130091E06AE371E048E650E00E942F25FE0177
S1131310F070E038F10530F08FEF90E09C012E1B67
S11313203F0BF901E45BFE4F8491CF3FD10511F0EF
S113133008F08095DF91CF910895EF92FF920F937B
S11313401F93CF93DF93EC017B018A018091BE044C
S1131350882341F48CEC91E06EED71E040E252E0C0
S11313600E942F258CEDFE0111928A95E9F7FD8EDE
S1131370EC8E1F8F0E8FCE01C1969EA78DA79CA7C2
S11313808BA79AA789A7CE01C59698AB8FA7CE0144
S1131390CE969BAF8AAF99AF88AF9FAB8EABCE0191
S11313A083589F4F9DAF8CAF44E050E0EBA5FCA564
S11313B010828BA59CA52FA538A98217930719F431
S11313C08DA59EA503C08BA59CA501969CA78BA764
S11313D04150504059F7CE018A579F4FFE01E258C1
S11313E0FF4F958384839383828391838083CE018B
S11313F08B539F4F97838683C701BE010E942E1B88
S11314008AB1806F8AB9239A259A8BE493E5A6E47E
S1131410B1E4888B998BAA8BBB8B86E895E09B8380
S11314208A8386E095E09983888380E596E09B87AC
S11314308A8781E796E09D878C8782E996E09F877B
S11314408E8780E490E098A78FA3DF91CF911F91BE
S11314500F91FF90EF9008952F923F924F925F92D9
S11314606F927F928F929F92AF92BF92CF92DF92B0
S1131470EF92FF920F931F93CF93DF93CDB7DEB715
S1131480CE54D0400FB6F894DEBF0FBECDBF7C0162
S11314900AE4202E01E0302E280E391E25E5422EC6
S11314A021E0522E480E591E34E5A32E31E0B32E0E
S11314B0A80EB91E4CE4842E41E0942E880E991E89
S11314C05EE4652E51E0752E680E791E37C1D20197
S11314D08C91882309F002C12E37310509F0F1C03F
S11314E0F401C080D180F2E1CF16D10408F4DCC04D
S11314F0D3018D919C911197B0EF883B9B0709F024
S1131500D3C0FE013896D70180E090E02D91269556
S1131510203209F420E02193019686309105B1F739
S1131520F701868186958F708E873796DE01119636
S113153080E090E021912695203209F420E02D935B
S1131540019686309105B1F7D7011D96F70185857F
S113155086958F708F8328961FAE289790E024C0BD
S1131560F80181918F018695803209F480E0F901B8
S1131570E40FF51F86874F5F5F4F4630510581F7B3
S11315801796FB0113E0EE0FFF1F1A95E1F7E61B18
S1131590F70B21E030E02C0F3D1FE20FF31F8C917D
S11315A086958F70848B9F5F8C9180FD18C09830D6
S11315B0B0F48D010F5F1F4F40E050E0692F70E0E1
S11315C09B01E3E0220F331FEA95E1F7261B370B5B
S11315D0E1E0F0E0EC0FFD1F2E0F3F1FC1CF289676
S11315E09FAF289711968C91119790E02A969FAF00
S11315F08EAF2A9783309105A9F000D000D000D097
S1131600EDB7FEB7319621E732E0ADB7BEB712961B
S11316103C932E93119729E031E033832283958301
S113162084831CC012968C9112972B968FAF2B97A4
S1131630803FF9F000D000D000D0EDB7FEB731966E
S11316402DE932E0ADB7BEB712963C932E931197B5
S113165029E031E033832283848315820E949E240F
S1131660EDB7FEB736960FB6F894FEBF0FBEEDBFCA
S11316701BC01396C601029797012A1B3B0B820FCE
S1131680931F2F969FAF8EAF2F972D96BFAFAEAF00
S11316902D97F701EE5AFE4F0190F081E02D30971F
S11316A019F0CE010196099581E0D5018C938FEF55
S11316B09FEFF30191838083D40111961C921E92B3
S11316C03DC02F37310519F4F501108237C02B3195
S11316D0310521F481E0D2018C9330C0F501808181
S11316E0882351F1D4018D919C911197B1E08A34F2
S11316F09B0700F5F701E80FF91F20830196F40119
S113170091838083D3014D915C911197822F90E056
S1131710842795279070880F991F84539C4FFC0150
S113172025913491852F99272827392711963C93A1
S11317302E9302C0F5011082D2011C92F101808126
S113174091810E94AC049C01FFEF8F3F9F0709F039
S1131750BECED1010D911C911197F8018485958518
S1131760009741F488E192E062E272E04DE051E0DA
S11317700E942F25D8011C96ED91FC911D97C8015C
S11317800995009709F452C0F701E65BFE4F00810A
S11317901181F80184859585009741F488E192E0F0
S11317A062E272E04DE051E00E942F25D8011C96C0
S11317B0ED91FC911D97C801099500D000D000D08F
S11317C0EDB7FEB7319626E332E0ADB7BEB7129659
S11317D03C932E9311972EE031E03383228395833B
S11317E084830E949E24F701E65BFE4F00811181F1
S11317F0EDB7FEB736960FB6F894FEBF0FBEEDBF39
S1131800D8011E968D919C911F97009741F480E515
S113181092E06DE572E043E151E00E942F25D8018A
S11318201E96ED91FC911F97C8010995C25BDF4F8D
S11318300FB6F894DEBF0FBECDBFDF91CF911F91DD
S11318400F91FF90EF90DF90CF90BF90AF909F905B
S11318508F907F906F905F904F903F902F9008955E
S1131860EF92FF920F931F93CF93DF93EC018B01C1
S11318707A01009741F481E793E065E773E04DE274
S113188051E00E942F250115110541F487E893E0EA
S11318906FE873E04EE251E00E942F2586E591E067
S11318A0FE019C01119221503040E1F7FE01E65BFC
S11318B0FE4F11830083FE01EE5AFE4FF182E08257
S11318C0FE01E05BFE4F8FEF9FEF91838083C25B4D
S11318D0DE4F99838883DF91CF911F910F91FF9001
S11318E0EF9008952F923F924F925F926F927F9262
S11318F08F929F92AF92BF92CF92DF92EF92FF921C
S11319000F931F93CF93DF93CDB7DEB7C45AD04064
S11319100FB6F894DEBF0FBECDBFFC01C856DF4F33
S113192079836883C859D040C656DF4F59834883AA
S1131930CA59D040A901C557DF4F19821882CB5824
S1131940D0409E012F5F3F4FC957DF4F3983288313
S1131950C758D040CE018A579F4FC757DF4F99834E
S11319608883C958D04067C0882321F5C557DF4F05
S11319708881CB58D040C457DF4F9881CC58D04091
S1131980CC55DF4F0FB6F894DEBF0FBECDBFDF914D
S1131990CF911F910F91FF90EF90DF90CF90BF9068
S11319A0AF909F908F907F906F905F904F903F90FB
S11319B02F900895C656DF4F68817981CA59D04067
S11319C0CD55DF4F4883C35AD040CC55DF4F5883A1
S11319D0C45AD040C856DF4FA881B981C859D040F5
S11319E0FD010995C557DF4FE881F981CB58D040F7
S11319F03196C557DF4FF983E883CB58D040CD5596
S1131A00DF4F4881C35AD040CC55DF4F5881C45A68
S1131A10D040C157DF4F59834883CF58D040C15776
S1131A20DF4F48815981CF58D040CE56DF4FE881EF
S1131A30F981C259D040DF018D91CE56DF4FB98371
S1131A40A883C259D040853209F08ECF8181853276
S1131A5051F49F012E5F3F4FCE56DF4F39832883C9
S1131A60C259D040A7CFCE56DF4FE881F981C25981
S1131A70D040C356DF4F1882CD59D040CB56DF4FEC
S1131A801882C559D0403324CF56DF4F1882C1592C
S1131A90D040CC56DF4F3881C459D0403170330F19
S1131AA0330F222D21702295207FCA56DF4F988153
S1131AB0C659D04091709295990F907EC956DF4FC8
S1131AC06881C759D04067956627679570E000E044
S1131AD0DF0181918B3299F18C322CF4803251F0F8
S1131AE0833279F522C08D3219F0803351F520C04C
S1131AF001E0EECF1C7F172B1B7F132B802F880F49
S1131B00880F880F177F182B1F7E122B1F7D192B10
S1131B10832D8295880F880F807C1F7B182B1F775D
S1131B20162B812F837059F0D3CF33243394D0CF25
S1131B3081E0C356DF4F8883CD59D040C9CF71E0CF
S1131B40C7CFCB56DF4F7883C559D040CF56DF4F30
S1131B500883C159D040C056DF4F3882C05AD040A4
S1131B608A3251F0C357DF4F19821882CD58D040C2
S1131B7020E030E0BA0133C0CA010296FA010190B4
S1131B80F081E02DC357DF4FF983E883CD58D0406F
S1131B90F7FF0FC0F095E195FF4FC357DF4FF9836F
S1131BA0E883CD58D040F1E0CF56DF4FF883C159D8
S1131BB0D040FD013196AC011FC0C901880F991FA7
S1131BC0F3E0220F331FFA95E1F7280F391F205352
S1131BD03040842F992787FD9095280F391FFD01E8
S1131BE04D91842F80538A3040F3C357DF4F39839C
S1131BF02883CD58D040AB01CF56DF4F2881C1593F
S1131C00D040222329F0C356DF4F1882CD59D0404B
S1131C1080818E3269F581818A3239F0DF01119633
S1131C20882499249401BA011AC0DA018D909C90F9
S1131C30119732964E5F5F4F1EC0C901880F991FDE
S1131C4053E0220F331F5A95E1F7280F391F205311
S1131C503040842F992787FD9095280F391FFD0167
S1131C604D91842F80538A3040F34901AB0103C066
S1131C7088248A94982C80818836A1F089361CF4B3
S1131C808C34C1F406C08C3621F08A3799F42224AE
S1131C9002C0222423943196CA56DF4F1882C659B3
S1131CA0D0400EC03196B1E0CA56DF4FB883C65952
S1131CB0D04005C0CA56DF4F1882C659D0402224EE
S1131CC0DF010D91CE56DF4FB983A883C259D040AE
S1131CD0053609F40CC20636BCF4033509F446C0D3
S1131CE0043554F4053409F402C2073409F4F6C186
S1131CF0002309F4A6C420C0033629F104360CF0ED
S1131D00C1C00835C9F46FC0003709F46CC001378D
S1131D104CF4073609F4E2C107360CF4E7C109367E
S1131D2059F4B0C0053709F45EC0083709F470C02F
S1131D30033711F400E01BC0C157DF4F59834883B8
S1131D40CF58D0408AC4FA013296C157DF4FF98385
S1131D50E883CF58D040DA018C91898300E0DE011A
S1131D6012962E010894411C511C87C401E0FA010B
S1131D703296C157DF4FF983E883CF58D040DA0158
S1131D804D905C9011974114510421F4A6E64A2E1B
S1131D90A1E05A2E97FE04C0F0E18F2EF7E29F2EA9
S1131DA0002341F4920140E050E012C011962F5FED
S1131DB03F4F03C0D20120E030E0FD01849188232D
S1131DC009F45BC4281539058CF357C44F5F5F4F82
S1131DD0D9012F5F3F4F8C91882309F44EC44815D5
S1131DE05905A4F34AC40037C1F49A012E5F3F4F4A
S1131DF0C157DF4F39832883CF58D040DA018D9102
S1131E009C91A0E0B0E0EAEAAE2EE1E0BE2E27C04D
S1131E107AEBA72E71E0B72E04C06AEAA62E61E021
S1131E20B62E222071F0FA013496C157DF4FF983A0
S1131E30E883CF58D040FA0180819181A281B38197
S1131E400EC09A012E5F3F4FDA018D919C91C157CC
S1131E50DF4F39832883CF58D040A0E0B0E0E1E0E1
S1131E60CC56DF4FE883C459D040053729F4CC560B
S1131E70DF4F1882C459D040CB56DF4F1882C55962
S1131E80D0403EC09A01222071F02C5F3F4FC157D1
S1131E90DF4F39832883CF58D040FA018081918164
S1131EA0A281B3810FC02E5F3F4FC157DF4F3983EB
S1131EB02883CF58D040DA018D919C91AA2797FDB1
S1131EC0A095BA2FB7FF13C0B095A09590958195B2
S1131ED09F4FAF4FBF4FCC56DF4F1882C459D040ED
S1131EE0E2E0CB56DF4FE883C559D04005C0CC565D
S1131EF0DF4F1882C459D0405AEAA52E51E0B52EBE
S1131F00F1E0C956DF4FF883C759D0400097A105C7
S1131F10B10529F4C956DF4F1882C759D04081143E
S1131F20910441F4C956DF4F2881C759D040222378
S1131F3009F492C0CC56DF4F3881C459D04046E8EA
S1131F40C42ED12CCC0EDD1E3130D9F03AE0432E14
S1131F50512C612C712CBC01CD01A30192010E9472
S1131F609B27DC01CB018A0D9B1DDC018C91F601C2
S1131F7082936F01C901DA010097A105B10559F7F0
S1131F8014C0FC01EF70F070EA0DFB1D2081F60116
S1131F9022936F0124E0B695A795979587952A9586
S1131FA0D1F70097A105B10561F797FE5AC0C35652
S1131FB0DF4FF881CD59D040FF2309F452C01C7F74
S1131FC0CB56DF4F2881C559D040122BCC56DF4F5A
S1131FD08881C459D0408170880F880F1B7F182BCB
S1131FE0CF56DF4F8881C159D040880F880F880FA2
S1131FF0177F182B822D81708295807F1F7E182B6E
S1132000CA56DF4F8881C659D04081708295880FA7
S1132010807E1F7D182B832D8295880F880F807CEE
S11320201F7B182BC956DF4F8881C759D04087952D
S1132030882787951F77182B212F237081E090E044
S113204011F480E090E0C357DF4F88809980CD5829
S1132050D040881A990A05C086E8C82ED12CCC0E27
S1132060DD1ED601C757DF4F88819981C958D040FA
S11320708C199D0903C030E33E9301962D01881508
S11320809905CCF33320B9F0C956DF4F4881C759BD
S1132090D040442381F0083711F0083561F4FD0184
S11320A0319700830EEF402E0FEF502E4A0E5B1E29
S11320B0E0E3D201EC93C957DF4F28813981C75837
S11320C0D0404216530608F0D2C281EA93E064EB92
S11320D073E048EB52E00E942F25C9C20250E1E0B0
S11320E0AE2EB12C8114910439F003C000E0AA246F
S11320F0BB2497FE08C004C071E0872E912C03C056
S113210066E0862E912CCA010496C157DF4F99834D
S11321108883CF58D040DA01CD90DD90ED90FC90CB
S1132120C701B60120E030E0A9010E94D22587FF53
S11321300AC0F7FAF094F7F8F094B2E0CB56DF4F08
S1132140B883C559D04031E0432E512C4C0E5D1E4E
S1132150C357DF4FE881F981CD58D0404E0E5F1E42
S1132160C456DF4FA882CC59D040C701B60120E045
S113217030E040E85FE30E94212787FF11C036C0AA
S1132180C701B60129EF32E045E150E50E94D625AA
S11321906B01E82EF92E2AE030E0620E731E02C0B5
S11321A066247724C701B60127EB33E44AEB51E5F3
S11321B00E94212787FFE4CF0EC0C701B60120E0AB
S11321C030E040E251E40E94D6256B01E82EF92E5E
S11321D00894611C711CC701B60120E030E040E2A4
S11321E051E40E94212787FFE8CF3EC0C701B60112
S11321F020E030E0A9010E94D225662477248823B8
S113220081F432C0C701B60129EF32E045E150E55F
S11322100E9425276B01E82EF92E86EF9FEF680EAA
S1132220791EC701B6012FEF36EE4BED5EE20E9438
S1132230D22518163CF70EC0C701B60120E030E0E5
S113224040E251E40E9425276B01E82EF92E089400
S113225061087108C701B60120E030E040E85FE39F
S11322600E94D22587FDE8CFC456DF4F9881CC5910
S1132270D0409923F1F06814790444F4ACEF6A1661
S1132280AFEF7A061CF08618970800E008948108DE
S11322909108332031F0C456DF4F1882CC59D04016
S11322A008C033243394B1E0C456DF4FB883CC590B
S11322B0D040002309F051C077FE49C0E1E0F0E0CE
S11322C0EC0FFD1FC357DF4F28813981CD58D04013
S11322D0E20FF31F30E330838114910449F4332077
S11322E039F452010894A11CB11C20E030E014C060
S11322F0E2E0F0E0EC0FFD1FC357DF4F88819981C6
S1132300CD58D040E80FF91F8EE2808322E0A22E40
S1132310B12CA40CB51C940180E090E0F50104C03C
S1132320A0E3A1932150304001978615970519F039
S113233021153105A9F75F01C401809590956816B0
S113234079060CF4C3C0490181E090E009C08827F4
S1132350992786199709520103C0520180E090E041
S1132360C256DF4F99838883CE59D04053C0C701EA
S1132370B6010E943E26DC01CB01CF55DF4F998385
S11323808883C15AD040FC01BF01882777FD80951E
S1132390982F0E9471269B01AC01C701B6010E94CF
S11323A06D259C01CB01D901BC01CD0120E030E0B9
S11323B040E251E40E9425276B017C01CF55DF4F99
S11323C08881C15AD040805DF5018193C256DF4FA8
S11323D028813981CE59D0402115310561F4811409
S11323E0910411F4332039F0EEE2D5011196EC9307
S11323F01197F5013296C256DF4F28813981CE59A3
S1132400D0402F5F3F4FC256DF4F39832883CE59C8
S1132410D0405F01C256DF4F88819981CE59D040A8
S1132420881699060CF0A3CFC701B60120E030E06E
S113243040EA50E40E94212787FD48C0F50181E06D
S113244090E022912E3259F0820F80838A3329F44E
S113245090E3908381E090E002C080E090E04E162B
S11324605F0678F3009791F10023B1F0D5010DC018
S1132470FD0182919F018E3231F4FD0132978081FA
S11324808C93D90101C08C9311974A165B0680F393
S11324900894611C711C0CC00894A11CB11CD501CA
S11324A004C0FD0182918C93DF014A165B06C8F3D8
S11324B0E1E0F0E0EC0FFD1FC357DF4F28813981C5
S11324C0CD58D040E20FF31F81E38083C456DF4F21
S11324D03881CC59D040332349F001C05F01F50164
S11324E082918033D9F38E3209F45F01D501002340
S11324F009F442C00C9395012E5F3F4F77FE09C04B
S11325008DE211968C931197709461947108739471
S113251003C08BE2F5018183C9010A96CC24DD2432
S11325205C010894C11CD11CC3016AE070E00E94E4
S11325308827805DD5018C93C50101963B01611507
S1132540710571F7B2E0CB16D10454F3D501199794
S113255020E030E0AC014C195D09FA01E20FF31FF1
S113256080818E932F5F3F4FC601821B930B1816F9
S113257019069CF3D5011997C356DF4FE881CD594D
S1132580D040EE2309F478C01C7FCB56DF4FF8818E
S1132590C559D0401F2BCC56DF4F8881C459D04039
S11325A08170880F880F1B7F182BCF56DF4F8881CF
S11325B0C159D040880F880F880F177F182B822DA0
S11325C081708295807F1F7E182BCA56DF4F8881C9
S11325D0C659D04081708295880F807E1F7D182B4C
S11325E0C056DF4F8881C05AD0408295880F880F2B
S11325F0807C1F7B182BC956DF4F8881C759D04078
S11326008795882787951F77182B212F237081E0C2
S113261090E011F480E090E0C357DF4F28813981C6
S1132620CD58D040281B390BF201CD0184199509EE
S113263003C040E3429301962F0182179307CCF322
S11326401BC0C157DF4F59834883CF58D040CE5663
S1132650DF4FF983E883C259D04000E0A0E7B1E03E
S11326608DEF482E8FEF582E4A0E5B1E06C000E0F9
S1132670DE01AA57BF4F01C000E05D01A418B508F0
S1132680C357DF4F88819981CD58D0408A159B0567
S11326900CF453C01C7FCB56DF4F9881C559D040F2
S11326A0192BCC56DF4F8881C459D0408170880FD4
S11326B0880F1B7F182BCF56DF4F8881C159D0401C
S11326C0880F880F880F177F182B822D81708295B1
S11326D0807F1F7E182BCA56DF4F8881C659D04091
S11326E081708295880F807E1F7D182BC056DF4F26
S11326F08881C05AD0408295880F880F807C1F7BC8
S1132700182BC956DF4F8881C759D0408795882731
S113271087951F77182BC357DF4FC880D980CD58B2
S1132720D040CA18DB08212F237081E090E011F417
S113273080E090E0C81AD90A02C0CC24DD24CF5628
S1132740DF4FA881C159D040AA2341F53501802E1D
S1132750A12EC557DF4F08811981CB58D04010C036
S113276080E2C656DF4F68817981CA59D040C85685
S1132770DF4FE881F981C859D04009950F5F1F4F99
S11327800894C108D108D7FEEBCFC557DF4F198392
S11327900883CB58D040082D1A2D53011C7FCB56EB
S11327A0DF4FF881C559D0401F2BCC56DF4F8881AD
S11327B0C459D0408170880F880F1B7F182BCF56C7
S11327C0DF4F8881C159D040880F880F880F177F49
S11327D0182B822D81708295807F1F7E182BCA56FC
S11327E0DF4F8881C659D04081708295880F807EE2
S11327F01F7D182BC056DF4F8881C05AD040829568
S1132800880F880F807C1F7B182BC956DF4F888167
S1132810C759D0408795882787951F77182B812F14
S1132820837001F1813011F48BE201C08DE2C65650
S1132830DF4F68817981CA59D040C856DF4F28815B
S11328403981C859D040F9010995C557DF4F8881AE
S11328509981CB58D0400196C557DF4F998388831F
S1132860CB58D040002301F54601C12EC557DF4F98
S113287008811981CB58D0403CC0F2010894411C16
S1132880511C8491C656DF4F68817981CA59D04062
S1132890C856DF4FA881B981C859D040FD010995B8
S11328A00894811C911C06C0C557DF4F888099800D
S11328B0CB58D0400894A108B108B7FEDECFC55765
S11328C0DF4F99828882CB58D04020C0F201819199
S11328D02F01C656DF4F68817981CA59D040C85646
S11328E0DF4F28813981C859D040F90109950F5F1C
S11328F01F4F0894A108B108B7FEE8CFC557DF4FB2
S113290019830883CB58D0401C2D6401CF56DF4F68
S11329103881C159D040332309F481C8A12EC55749
S1132920DF4F08811981CB58D04011C080E2C656D0
S1132930DF4F68817981CA59D040C856DF4FA881DA
S1132940B981C859D040FD0109950F5F1F4F089404
S1132950C108D108D7FEEACFC557DF4F19830883D2
S1132960CB58D0401A2D5BC81F920F920FB60F920E
S113297011240F931F932F933F934F935F936F9360
S11329807F938F939F93AF93BF93CF93DF93EF93F3
S1132990FF938091BA049091BB04A091BC04B091C0
S11329A0BD040196A11DB11D8093BA049093BB048C
S11329B0A093BC04B093BD040BEA1AEB39C02FB743
S11329C0F8948091BA049091BB04A091BC04B09196
S11329D0BD042FBF488559856A857B85841B950B6B
S11329E0A60BB70BB7FD2DC0CF3FD10509F048F4B6
S11329F0CE0161E676E04EE656E029EC30E00E9436
S1132A004525EA81FB818881998191838083E881CE
S1132A10F9818A819B81938382831B821A82198222
S1132A2018821B8B0A8BEC85FD85CE010C960995CB
S1132A30C091CA01D091CB0188819981009709F096
S1132A40BECFFF91EF91DF91CF91BF91AF919F9155
S1132A508F917F916F915F914F913F912F911F9132
S1132A600F910F900FBE0F901F9018958AEC91E074
S1132A709C012C5F3F4F3093CB012093CA011092ED
S1132A80CD011092CC011092CF011092CE019093FF
S1132A90D1018093D0011092BA041092BB04109219
S1132AA0BC041092BD040E94EC048091BE048823EF
S1132AB041F082EA96E065EB76E041E851E00E945D
S1132AC02F2581E08093BE04089588E98093C10096
S1132AD008951092C1000895FC018285882329F489
S1132AE081E0828788EB8093C10008959A01AB014D
S1132AF0DA01C901B695A79597958795805E9E459D
S1132B00A84FBF4FBC01CD010E949B2721503040EC
S1132B103093C5002093C4000895E2ECF0E0808176
S1132B20A4E0660F771FAA95E1F78F7C862B80833C
S1132B3008959FB7F89484B1886284B99FBF8FB712
S1132B40F894229A8FBF8FB7F89424988FBF80EDA2
S1132B508CBD8CB581608CBD8DB58E7F8DBD089587
S1132B601CBC9FB7F89484B1837C84B99FBF08953B
S1132B7008950895FC0182850895DC014FB7F89407
S1132B801A968C911A97882309F5E091C104F09163
S1132B90C204278D30A181A192A128173907B1F071
S1132BA081E01A968C93A78DB0A185A196A1A81750
S1132BB0B90731F483A194A190A3878F8C9105C0A8
S1132BC0A78DB0A18D91B0A3A78F8EBD4FBF0895DF
S1132BD0CF93DF93EC018230910544F088EC96E0CA
S1132BE067ED76E047E952E00E942F252BE030E0C4
S1132BF0C29FC001C39F900DD29F900D11248F5886
S1132C009E4FDF91CF9108951F920F920FB60F92AE
S1132C1011242F933F938F939F93AF93BF93EF937D
S1132C20FF93E091BF04F091C004278D30A181A1EE
S1132C3092A12817390731F488E98093C1001092D2
S1132C407B0114C0A78DB0A185A196A1A817B907CF
S1132C5031F483A194A190A3878F8C9105C0A78D93
S1132C60B0A18D91B0A3A78F8093C600FF91EF917F
S1132C70BF91AF919F918F913F912F910F900FBE74
S1132C800F901F9018951F920F920FB60F92112458
S1132C902F933F934F938F939F93AF93BF93EF9350
S1132CA0FF93E091BF04F091C00497A58091C00008
S1132CB08871892B87A74091C60027A130A583A5D9
S1132CC094A52817390739F421A532A585A596A519
S1132CD02817390741F021A532A587A190A50197AE
S1132CE02817390769F487A5816087A714C083A5CD
S1132CF094A503C081A592A5019692A781A70BC0B4
S1132D00A1A5B2A54C9321A532A585A596A5281702
S1132D10390781F7ECCFFF91EF91BF91AF919F916C
S1132D208F914F913F912F910F900FBE0F901F9055
S1132D3018951F920F920FB60F9211242F933F9361
S1132D404F935F938F939F93AF93BF93EF93FF93AF
S1132D50E091C104F091C20427A130A583A594A5F4
S1132D602817390739F421A532A585A596A5281772
S1132D70390771F041A552A527A130A52150304053
S1132D8081E090E04217530729F080E090E002C010
S1132D9081E090E0009799F48EB5A1A5B2A58C933B
S1132DA021A532A585A596A52817390719F483A569
S1132DB094A503C081A592A5019692A781A7E0914D
S1132DC0C104F091C204278D30A181A192A12817DA
S1132DD03907A1F0A78DB0A185A196A1A817B907BD
S1132DE031F483A194A190A3878F8C9105C0A78D02
S1132DF0B0A18D91B0A3A78F8EBD02C010928601A1
S1132E00FF91EF91BF91AF919F918F915F914F91FE
S1132E103F912F910F900FBE0F901F901895CF9355
S1132E20C82FFB016FB7F894878D90A1A3A1B4A11B
S1132E300AC021E030E06FBF21153105D9F06FB72A
S1132E40F894878D90A18A179B0739F421A132A1A8
S1132E5085A196A12817390761F341A152A1878D55
S1132E6090A1019721E030E04817590721F320E0B1
S1132E7030E0E1CF4FB7F894A1A1B2A1CC9321A146
S1132E8032A185A196A12817390719F483A194A129
S1132E9003C081A192A1019692A381A34FBF80A9EF
S1132EA091A9DC01ED91FC910084F185E02D099557
S1132EB08C2F90E0CF910895FC014FB7F89427A18F
S1132EC030A581A592A54FBF2817390769F44FB7DC
S1132ED0F89427A130A581A592A54FBF28173907DB
S1132EE019F487A5897B99F387A5897BB9F42FB752
S1132EF0F894A7A1B0A585A596A5A817B90731F49C
S1132F0083A594A590A787A38C9105C0A7A1B0A57C
S1132F108D91B0A7A7A32FBF90E008958FEF9FEFE7
S1132F200895CF92DF92EF92FF920F931F93CF9366
S1132F30DF937C01D62FC72F6A01FC018089918918
S1132F40A289B3898C34F2E59F07F5E4AF07F3E572
S1132F50BF0741F084EF96E06CE077E04DEB50E082
S1132F600E942F250D2F1C2FC0E0D0E00BC0C701FD
S1132F700E945C172FEF8F3F920739F0F80181937D
S1132F808F012196CC15DD0591F7CE01DF91CF910C
S1132F901F910F91FF90EF90DF90CF900895CF9203
S1132FA0DF92EF92FF920F931F93CF93DF937C01F5
S1132FB0EB016A01FC0180899189A289B3898C346F
S1132FC0F2E59F07F5E4AF07F3E5BF0741F084EFAF
S1132FD096E06CE077E04DEB50E00E942F258E01E7
S1132FE0C0E0D0E00EC0F80181918F01992787FDE0
S1132FF09095B7010E940F17FFEF8F3F9F0721F0B5
S11330002196CC15DD0579F7CE01DF91CF911F9183
S11330100F91FF90EF90DF90CF900895CF93DF93BF
S1133020EC0188899989AA89BB898C3422E59207A5
S113303025E4A20723E5B20741F084EF96E06CE0B3
S113304077E04DEB50E00E942F258FA590E0DF91B3
S1133050CF910895CF93DF93EC0188899989AA8948
S1133060BB898C3422E5920725E4A20723E5B20745
S113307041F084EF96E06CE077E04DEB50E00E9485
S11330802F251FA6DF91CF910895CF93DF93EC01F5
S113309088899989AA89BB898C3422E5920725E419
S11330A0A20723E5B20741F084EF96E06CE077E0F5
S11330B04DEB50E00E942F252F8D38A189A19AA1B4
S11330C028173907C9F788A999A9DC01ED91FC9162
S11330D00284F385E02D0995882371F780E090E060
S11330E0DF91CF910895EF92FF920F931F93CF93A7
S11330F0DF938C01EB016230710540F08CE397E0C3
S113310068E577E04BE551E00E942F25FE01EE0FC4
S1133110FF1FE154FB4F11830083D8015E968C910D
S11331205E97882341F089E697E066E777E04EE50D
S113313051E00E942F2581E0F801868FD58FC48F3E
S1133140CE010E94E815D801D1969C938E93D09716
S1133150FC0182819381009741F487E897E068E954
S113316077E046E651E00E942F25D801D096ED91F4
S1133170FC91D19784819581009741F489EA97E085
S11331806AEB77E047E651E00E942F25D801D096FC
S1133190ED91FC91D197E280F380C681D781C23052
S11331A0D10540F48BEC97E064ED77E04EE151E01B
S11331B00E942F25F801F4A2E3A2F2A2E1A2F0A258
S11331C0E78E2197CE0DDF1DD6A3C5A300A8F1A9D4
S11331D0E02DE480F580C085D185C230D10540F46E
S11331E08BEC97E064ED77E04EE151E00E942F25EF
S11331F0D8019C96FC92EE929B979A96FC92EE9242
S113320099979896FC92EE9297972197CE0DDF1D91
S11332109E96DC93CE939D97D0968D919C91D19759
S1133220DC01ED91FC910190F081E02DB80109954C
S1133230F80117A6C801DF91CF911F910F91FF905C
S1133240EF900895DC01D0968D919C91D197DC018B
S1133250ED91FC910480F581E02D09950895FC0120
S11332602FB7F89481A592A590A787A32FBF08959F
S1133270FC012FB7F89481A192A190A3878F2FBF4F
S11332800895CF93DF93EC010E942F19CE010E9481
S11332903819DF91CF910895CF93DF93EC0188899A
S11332A09989AA89BB898C3422E5920725E4A2076F
S11332B023E5B20741F084EF96E06CE077E04DEB54
S11332C050E00E942F258E8D882341F48DE197E0F4
S11332D06BE277E044E851E00E942F251E8ECE0178
S11332E00E94451888A999A9DC01ED91FC910280FE
S11332F0F381E02D099519AA18AACE010E9441195B
S113330080E090E0DF91CF910895CF93DF93EC01BB
S113331088899989AA89BB898C3422E5920725E496
S1133320A20723E5B20741F084EF96E06CE077E072
S11333304DEB50E00E942F25CE010E944C196C8D5C
S11333407D8DCE010E947318CE01DF91CF91089537
S1133350FC0182E3DF011D928A95E9F78CE492E592
S1133360A5E4B3E5808B918BA28BB38B85E899E1BF
S1133370958384838CE499E19783868381E997E13B
S1133380918380838FEC97E19383828385E498E132
S1133390938782878EE098E1958784878AE298E113
S11333A097878687CF010E94731808956F927F9242
S11333B08F929F92BF92CF92DF92EF92FF920F93E0
S11333C01F93CF93DF938C018DB79EB70C970FB6E5
S11333D0F8949EBF0FBE8DBFEDB7FEB7319636E8A9
S11333E0C32E34E0D32EADB7BEB71296DC92CE9284
S11333F0119789E191E09383828315830483D80133
S113340016968C91169786831782C8010796918722
S113341080871D968C91828713860E94DA04780136
S1133420EDB7FEB73C960FB6F894FEBF0FBEEDBFE6
S1133430C0E0D0E046E4642E712C600E711EBC2CFA
S1133440CD2C58E3852E51E0952E31C08DB79EB713
S113345008970FB6F8949EBF0FBE8DBFEDB7FEB7A9
S11334603196ADB7BEB71196BC9211971296CC9215
S113347093828282CE0123E0880F991F2A95E1F777
S11334808C1B9D0B0E96800F911F95838483D7010F
S11334901D968C91868317820E94DA042196EDB7DB
S11334A0FEB738960FB6F894FEBF0FBEEDBF87E0A7
S11334B090E0E80EF91ED3018C9190E0C817D9076B
S11334C02CF2EDB7FEB738970FB6F894FEBF0FBED7
S11334D0EDBF319686E894E0ADB7BEB712969C93E3
S11334E08E93119789E491E093838283D801A45B3E
S11334F0BF4F8D919C9195838483D801A65BBF4F68
S11335008D919C91978386830E94DA04EDB7FEB770
S113351038960FB6F894FEBF0FBEEDBFDF91CF9182
S11335201F910F91FF90EF90DF90CF90BF909F90ED
S11335308F907F906F90089578940E94D0240E9479
S1133540361584E592E060E070E040E050E00E94CF
S11335509D0980E393E064E572E046ED59E10E9441
S1133560300CC6E8D4E0CE0160E070E00E94A819F7
S1133570CE0140E855E260E070E00E94221900D0DC
S113358000D0ADB7BEB71296DC93CE93119786E503
S113359091E014969C938E9313970E94DA048FB74C
S11335A0F894C090BA04D090BB04E090BC04F090AE
S11335B0BD048FBF0F900F900F900F900EE511E098
S11335C080E393E00E942C0A2FB7F8948091BA0408
S11335D09091BB04A091BC04B091BD042FBF8C1981
S11335E09D09AE09BF098136EAEE9E07E0E0AE0709
S11335F0E0E0BE072CF38FB7F894C090BA04D090E3
S1133600BB04E090BC04F090BD048FBF00D000D098
S113361000D0EDB7FEB73196ADB7BEB71296DC93C6
S1133620CE93119713830283809152029091530297
S1133630958384830E94DA0480915202909153020C
S113364001969093530280935202EDB7FEB73696DB
S11336500FB6F894FEBF0FBEEDBFB2CFCF93DF938A
S1133660EC017093B9046093B8048630910544F07A
S11336708CEE97E064EF77E04AE350E00E942F2558
S1133680259A2D98109280008AE18093810087E624
S113369090E090938700809386008C2F80648093C1
S11336A07C0027B181E090E002C0880F991FCA9581
S11336B0E2F7382F3095232327B998B1932398B98B
S11336C090917E00982B90937E0087E080937B00FE
S11336D08CEE80937A00DF91CF9108951F920F9220
S11336E00FB60F9211242F933F934F935F936F93D1
S11336F07F938F939F93AF93BF93EF93FF9380E256
S113370086BB60917800709179007695679576957F
S1133710679560588091B8049091B9040E94B306EB
S11337208091C304882341F08091B8049091B90436
S11337300E949F08807F01C080E88BB9FF91EF91C0
S1133740BF91AF919F918F917F916F915F914F91B5
S11337503F912F910F900FBE0F901F9018952F92AD
S11337603F924F925F926F927F928F929F92AF920D
S1133770BF92CF92DF92EF92FF920F931F93CF935A
S1133780DF93CDB7DEB7C45AD0400FB6F894DEBF8E
S11337900FBECDBFC956DF4F99838883C759D04028
S11337A0C756DF4F79836883C959D040C556DF4F68
S11337B059834883CB59D040C557DF4F19821882AB
S11337C0CB58D040AE014F5F5F4FC957DF4F59838D
S11337D04883C758D040CE018A579F4FC757DF4F01
S11337E099838883C958D04067C0882321F5C55779
S11337F0DF4F8881CB58D040C457DF4F9881CC58D5
S1133800D040CC55DF4F0FB6F894DEBF0FBECDBF0E
S1133810DF91CF911F910F91FF90EF90DF90CF90A8
S1133820BF90AF909F908F907F906F905F904F90DC
S11338303F902F900895C556DF4F68817981CB5909
S1133840D040CD55DF4F2883C35AD040CC55DF4FED
S11338503883C45AD040C756DF4FE881F981C9592B
S1133860D0400995C557DF4F48815981CB58D04086
S11338704F5F5F4FC557DF4F59834883CB58D040C4
S1133880CD55DF4F2881C35AD040CC55DF4F388106
S1133890C45AD040C157DF4F39832883CF58D04012
S11338A0C956DF4FF982E882C759D040C157DF4F6C
S11338B028813981CF58D040C956DF4FE880F9803C
S11338C0C759D0400894E11CF11CC956DF4FE88168
S11338D0F981C759D0408491853209F086CFF70128
S11338E08491853209F044C0C956DF4F488159811B
S11338F0C759D0404E5F5F4FC956DF4F5983488345
S1133900C759D040C556DF4F68817981CB59D04023
S1133910CD55DF4F2883C35AD040CC55DF4F388371
S1133920C45AD040C756DF4FE881F981C959D04005
S11339300995C557DF4F48815981CB58D0404F5F17
S11339405F4FC557DF4F59834883CB58D040CD557F
S1133950DF4F2881C35AD040CC55DF4F3881C45A39
S1133960D040C157DF4F39832883CF58D0409ECFF2
S1133970C356DF4F1882CD59D0403324CD56DF4F84
S11339804881C359D0404170440F440FCF56DF4F94
S11339909881C159D04091709295907FCB56DF4F5A
S11339A08881C559D04081708295880F807ECA561F
S11339B0DF4F5881C659D04057955527579560E039
S11339C070E0F701A491AB3299F1AC3228F4A03243
S11339D051F0A33291F522C0AD3219F0A03369F54C
S11339E020C071E026C01C7F162B1B7F142BE72FF1
S11339F0EE0FEE0FEE0F177F1E2B1F7E192B1F7D70
S1133A00182BE32DE295EE0FEE0FE07C1F7B1E2BAF
S1133A101F77152BE12FE37059F00BC03324339437
S1133A2008C0F1E0C356DF4FF883CD59D04001C040
S1133A3061E00894E11CF11CC4CFCC56DF4F6883CD
S1133A40C459D040CE56DF4F7883C259D040C056B7
S1133A50DF4F3882C05AD040F70184918A32B1F5E1
S1133A60C9010296F9010190F081E02DC357DF4F9F
S1133A70F983E883CD58D040F7FF0FC0F095E19566
S1133A80FF4FC357DF4FF983E883CD58D040F1E0AF
S1133A90CE56DF4FF883C259D0400894E11CF11C84
S1133AA09C0125C00894E11CF11CFC016491C9012E
S1133AB0880F991F73E0220F331F7A95E1F7280FBF
S1133AC0391F20533040260F311D03C0A90120E0C7
S1133AD030E0C701F7016491603310F06A3310F3EA
S1133AE0C357DF4F39832883CD58D0409A01CE562F
S1133AF0DF4FF881C259D040FF2329F0C356DF4F6E
S1133B001882CD59D040F70184918E3279F53196DF
S1133B1084918A32F1F4F901A080B18042E050E04E
S1133B20E40EF51E2E5F3F4F27C00894E11CF11CE4
S1133B30FC016491C901880F991FB3E0220F331F60
S1133B40BA95E1F7280F391F20533040260F311D55
S1133B5005C07F01AA24BB24A9019501C701F7016F
S1133B606491603338F06A3300F304C0AA24AA9441
S1133B70BA2C02C059019A01F70184918836F1F0F8
S1133B80893618F48C3421F50AC08C3641F08A3712
S1133B90F9F4CF56DF4F1882C159D04006C0F1E086
S1133BA0CF56DF4FF883C159D0400894E11CF11C73
S1133BB0CB56DF4F1882C559D04014C00894E11C7D
S1133BC0F11C41E0CB56DF4F4883C559D04005C0B6
S1133BD0CB56DF4F1882C559D040CF56DF4F1882DD
S1133BE0C159D040C7010196C956DF4F99838883D4
S1133BF0C759D040F7010491202E053609F41DC29F
S1133C000636BCF4033509F447C0043554F40534CE
S1133C1009F413C2073409F405C2002309F4A2C449
S1133C2020C0033629F104360CF0C7C00835C9F4A6
S1133C3070C0003709F46DC001374CF4073609F43D
S1133C40F1C107360CF4F8C1093659F4B6C005378A
S1133C5009F45FC0083709F471C0033711F400E0B8
S1133C601CC0C157DF4F39832883CF58D04086C446
S1133C70A9014E5F5F4FC157DF4F59834883CF5827
S1133C80D040F9018081898300E0DE0112962E0183
S1133C900894411C511C82C401E0A9014E5F5F4F8E
S1133CA0C157DF4F59834883CF58D040F901408032
S1133CB051804114510421F4E7E84E2EE1E05E2ED8
S1133CC0B7FE04C070E1A72E77E2B72E002341F4BB
S1133CD0920140E050E012C011962F5F3F4F03C0A5
S1133CE0D20120E030E0FD018491882309F456C418
S1133CF02A153B058CF352C44F5F5F4FD9012F5FE8
S1133D003F4F8C91882309F449C44A155B05A4F3F9
S1133D1045C40037C1F4A9014E5F5F4FC157DF4F5F
S1133D2059834883CF58D040F90180819181A0E024
S1133D30B0E06AEAC62E61E0D62E2CC0EAEBCE2EA5
S1133D40E1E0DE2E04C07AEAC72E71E0D72ECF560A
S1133D50DF4FF881C159D040A901FF2371F04C5FB6
S1133D605F4FC157DF4F59834883CF58D040F90183
S1133D7080819181A281B3810DC04E5F5F4FF901B3
S1133D8080819181C157DF4F59834883CF58D040F8
S1133D90A0E0B0E021E0CD56DF4F2883C359D040E6
S1133DA0053729F4CD56DF4F1882C359D040CC567D
S1133DB0DF4F1882C459D04043C0CF56DF4F4881EB
S1133DC0C159D040442371F0C9010496C157DF4F53
S1133DD099838883CF58D040F90180819181A28151
S1133DE0B38110C0A9014E5F5F4FC157DF4F5983A4
S1133DF04883CF58D040F90180819181AA2797FD4B
S1133E00A095BA2FB7FF13C0B095A0959095819552
S1133E109F4FAF4FBF4FCD56DF4F1882C359D0408D
S1133E20F2E0CC56DF4FF883C459D04005C0CD56DC
S1133E30DF4F1882C359D0406AEAC62E61E0D62EFD
S1133E4021E0CA56DF4F2883C659D0400097A10508
S1133E50B10529F4CA56DF4F1882C659D040A114BF
S1133E60B10441F4CA56DF4F3881C659D0403323D8
S1133E7009F496C0CD56DF4F4881C359D04056E867
S1133E80E52EF12CEC0EFD1E4130D9F03AE0432E24
S1133E90512C612C712CBC01CD01A30192010E9413
S1133EA09B27DC01CB018C0D9D1DFC018081F7015A
S1133EB082937F01C901DA010097A105B10559F781
S1133EC014C0FC01EF70F070EC0DFD1D2081F701B2
S1133ED022937F0124E0B695A795979587952A9517
S1133EE0D1F70097A105B10561F7B7FE5EC0C356CF
S1133EF0DF4FF881CD59D040FF2309F456C01C7F11
S1133F00CC56DF4F2881C459D040122BCD56DF4FF9
S1133F108881C359D0408170880F880F1B7F182B6C
S1133F20CE56DF4F8881C259D040880F880F880F42
S1133F30177F182BCF56DF4F8881C159D04081702D
S1133F408295807F1F7E182BCB56DF4F8881C55901
S1133F50D04081708295880F807E1F7D182B832D21
S1133F608295880F880F807C1F7B182BCA56DF4FE1
S1133F708881C659D0408795882787951F77182B45
S1133F80212F237081E090E011F480E090E0C3578A
S1133F90DF4FA880B980CD58D040A81AB90A05C00F
S1133FA086E8E82EF12CEC0EFD1ED701C757DF4F33
S1133FB088819981C958D0408E199F0903C030E384
S1133FC03E9301962D018A159B05CCF33320B9F05D
S1133FD0CA56DF4F4881C659D040442381F0083780
S1133FE011F0083561F4FD01319700830EEF402E86
S1133FF00FEF502E4A0E5B1E20E3F2012083C957B7
S1134000DF4F48815981C758D0404416550608F0FF
S1134010BFC286E098E069E178E048EB52E00E9494
S11340202F25B6C26EEF262E200E71E0872E912C1E
S1134030A114B10439F003C0222488249924B7FEC2
S113404008C004C051E0A52EB12C03C046E0A42E44
S1134050B12CC9010496C157DF4F99838883CF5887
S1134060D040F901C080D180E280F380C701B6015D
S113407020E030E0A9010E94D22587FF0AC0F7FAA8
S1134080F094F7F8F094F2E0CC56DF4FF883C4597B
S1134090D04021E0422E512C4C0E5D1EC357DF4F01
S11340A028813981CD58D040420E531E082DC701B6
S11340B0B60120E030E040E85FE30E94212787FF5B
S11340C011C036C0C701B60129EF32E045E150E521
S11340D00E94D6256B01E82EF92E4AE050E0640ECA
S11340E0751E02C066247724C701B60127EB33E4AA
S11340F04AEB51E50E94212787FFE4CF0EC0C70198
S1134100B60120E030E040E251E40E94D6256B0184
S1134110E82EF92E0894611C711CC701B60120E039
S113412030E040E251E40E94212787FFE8CF3EC0FF
S1134130C701B60120E030E0A9010E94D22566241F
S11341407724882381F432C0C701B60129EF32E015
S113415045E150E50E9425276B01E82EF92E86EFF4
S11341609FEF680E791EC701B6012FEF36EE4BEDB7
S11341705EE20E94D22518163CF70EC0C701B601B4
S113418020E030E040E251E40E9425276B01E82E54
S1134190F92E089461087108C701B60120E030E0E7
S11341A040E85FE30E94D22587FDE8CF0023A9F011
S11341B06A147B0444F49CEF69169FEF79061CF0A3
S11341C0A618B70822240894A108B108332011F0D6
S11341D000E003C03324339401E0222009F051C0ED
S11341E077FE49C0E1E0F0E0EC0FFD1FC357DF4F5D
S11341F028813981CD58D040E20FF31F30E330835A
S1134200A114B10449F4332039F442010894811C07
S1134210911C20E030E014C0E2E0F0E0EC0FFD1F60
S1134220C357DF4F48815981CD58D040E40FF51F63
S11342308EE2808392E0892E912C840C951C95014A
S113424080E090E0F40104C050E3519321503040E9
S113425001978615970519F021153105A9F74F0126
S1134260C50180959095681679060CF4C0C0590173
S113427081E090E009C088279927861997094201AF
S113428003C0420180E090E0C256DF4F99838883E7
S1134290CE59D04050C0C701B6010E943E26DC0171
S11342A0CB01CF55DF4F99838883C15AD040FC019D
S11342B0BF01882777FD8095982F0E9471269B0166
S11342C0AC01C701B6010E946D259C01CB01D90147
S11342D0BC01CD0120E030E040E251E40E942527FA
S11342E06B017C01CF55DF4F8881C15AD040805D7E
S11342F0F4018193C256DF4F28813981CE59D040D1
S11343002115310549F4A114B10411F4332021F02D
S11343102EE2F40121833296C256DF4F488159813F
S1134320CE59D0404F5F5F4FC256DF4F5983488309
S1134330CE59D0404F01C256DF4F88819981CE5962
S1134340D040A816B9060CF0A6CFC701B60120E0EC
S113435030E040EA50E40E94212787FD48C0F40180
S113436081E090E022912E3259F0820F80838A33CB
S113437029F490E3908381E090E002C080E090E033
S11343804E165F0678F3009791F12220B1F0D40124
S11343900DC0FD0182919F018E3231F4FD013297EF
S11343A080818C93D90101C08C9311974A165B06C6
S11343B080F30894611C711C0CC00894811C911C2E
S11343C0D40104C0FD0182918C93DF014A165B067F
S11343D0C8F3E1E0F0E0EC0FFD1FC357DF4F288185
S11343E03981CD58D040E20FF31F81E3808300234D
S11343F049F001C04F01F40182918033D9F38E3228
S113440009F44F01222009F443C0F40120829401ED
S11344102E5F3F4F77FE07C08DE2818370946194D5
S11344207108739403C08BE2F4018183C9010A9675
S1134430EE24FF242AE030E06C010894E11CF11C16
S1134440C301B9010E948827805DF6018083C601FB
S113445001963B016115710579F7F2E0EF16F1045D
S11344605CF3D601199720E030E0AC014E195F09E6
S1134470FA01E20FF31F80818E932F5F3F4FC70134
S1134480821B930B181619069CF3D601199701C0C9
S1134490D401C356DF4F2881CD59D040222309F4DB
S11344A07CC01C7FCC56DF4F3881C459D040132BBD
S11344B0CD56DF4F8881C359D0408170880F880F53
S11344C01B7F182BCE56DF4F8881C259D040880FEE
S11344D0880F880F177F182BCF56DF4F8881C1595B
S11344E0D04081708295807F1F7E182BCB56DF4F82
S11344F08881C559D04081708295880F807E1F7D48
S1134500182BC056DF4F8881C05AD0408295880F3F
S1134510880F807C1F7B182BCA56DF4F8881C659B1
S1134520D0408795882787951F77182B212F2370D4
S113453081E090E011F480E090E0C357DF4F2881E0
S11345403981CD58D040281B390BF201CD01841993
S1134550950903C040E3429301962F018217930704
S1134560CCF31BC0C157DF4F39832883CF58D040C9
S1134570C956DF4FF982E882C759D04000E0A1E96B
S1134580B1E08DEF482E8FEF582E4A0E5B1E06C009
S113459000E0DE01AA57BF4F01C000E06D01C4185E
S11345A0D508C357DF4F88819981CD58D0408C15E9
S11345B09D050CF457C01C7FCC56DF4F9881C4591D
S11345C0D040192BCD56DF4F8881C359D04081701C
S11345D0880F880F1B7F182BCE56DF4F8881C25956
S11345E0D040880F880F880F177F182BCF56DF4FC6
S11345F08881C159D04081708295807F1F7E182B9D
S1134600CB56DF4F8881C559D04081708295880F81
S1134610807E1F7D182BC056DF4F8881C05AD04042
S11346208295880F880F807C1F7B182BCA56DF4F1A
S11346308881C659D0408795882787951F77182B7E
S1134640C357DF4FE880F980CD58D040EC18FD08FF
S1134650212F237081E090E011F480E090E0E81ACB
S1134660F90A02C0EE24FF24CE56DF4FE881C25976
S1134670D040EE2349F54601A02EC12EC557DF4F89
S113468008811981CB58D04011C080E2C556DF4F54
S113469068817981CB59D040C756DF4F2881398151
S11346A0C959D040F90109950F5F1F4F0894E108DB
S11346B0F108F7FEEACFC557DF4F19830883CB58BB
S11346C0D0400A2D1C2D64011C7FCC56DF4F38814D
S11346D0C459D040132BCD56DF4F8881C359D040E5
S11346E08170880F880F1B7F182BCE56DF4F88816F
S11346F0C259D040880F880F880F177F182BCF56C8
S1134700DF4F8881C159D04081708295807F1F7EA0
S1134710182BCB56DF4F8881C559D04081708295C4
S1134720880F807E1F7D182BC056DF4F8881C05AAA
S1134730D0408295880F880F807C1F7B182BCA5627
S1134740DF4F8881C659D0408795882787951F7782
S1134750182B812F837001F1813011F48BE201C099
S11347608DE2C556DF4F68817981CB59D040C75659
S1134770DF4F48815981C959D040FA010995C5577D
S1134780DF4F88819981CB58D0400196C557DF4FC0
S113479099838883CB58D0400023F9F45701E12E44
S11347A0C557DF4F08811981CB58D0403BC0F20177
S11347B00894411C511C8491C556DF4F688179814E
S11347C0CB59D040C756DF4FE881F981C959D04051
S11347D009950894A11CB11C06C0C557DF4FA880D9
S11347E0B980CB58D0400894C108D108D7FEDFCF98
S11347F0C557DF4FB982A882CB58D04020C0F20100
S113480081912F01C556DF4F68817981CB59D04002
S1134810C756DF4F28813981C959D040F90109951C
S11348200F5F1F4F0894C108D108D7FEE8CFC557C2
S1134830DF4F19830883CB58D0401E2D7501CE5607
S1134840DF4F3881C259D040332311F40C94561CE5
S1134850C12EC557DF4F08811981CB58D04011C0F4
S113486080E2C556DF4F68817981CB59D040C75665
S1134870DF4F48815981C959D040FA0109950F5F2A
S11348801F4F0894E108F108F7FEEACFC557DF4F40
S113489019830883CB58D0401C2D0C94561C90913E
S11348A0C00095FFFCCF8A3061F49091C000906401
S11348B09093C0009DE09093C6009091C00095FF36
S11348C0FCCF9091C00090649093C0008093C60088
S11348D00895CF939B01C091C1004091C1004860ED
S11348E04093C1004091C1004F794093C1006FE4EF
S11348F074E240E050E00E94AF1B8091C00086FF4C
S1134900FCCFC093C100CF910895CF93C091C10053
S11349109091C10098609093C1009091C1009F79DB
S11349209093C10060E070E00E944F248091C00029
S113493086FFFCCFC093C100CF910895CF93DF933E
S1134940CDB7DEB7FE01359681919191BF010E94EA
S11349506924DF91CF9108951F93CF93DF93EC01E6
S11349601091C1008091C10088608093C100809142
S1134970C1008F798093C10004C060E070E00E94A0
S11349804F24FE01219684918823B9F78091C000B9
S113499086FFFCCF1093C100DF91CF911F91089542
S11349A01092C50083E08093C40088E08093C10026
S11349B081E398E00E94AC240895AF92BF92CF9215
S11349C0DF92EF92FF920F931F93CF93DF936C01CB
S11349D025E0E22EF12CC0E1D7E200E010E03AE05D
S11349E0A32EB12CC601BE010E9488276C0161155B
S11349F0710531F40115110519F4C130D10531F4F3
S1134A00862F805D0E9485240F5F1F4FCE01B50164
S1134A100E948827EB010894E108F108E114F104ED
S1134A2009F7C801DF91CF911F910F91FF90EF908B
S1134A30DF90CF90BF90AF900895CF93DF93EB01B9
S1134A400E94AC248AE30E948524CE010E94DD24C6
S1134A5080E698E00E94AC24DF91CF910895CF9333
S1134A60DF93EC01CB01BA010E941D258DE498E08F
S1134A700E94AC24CE010E94AC248AE00E948524CA
S1134A8081E090E0DF91CF9108950F931F93CF932E
S1134A90DF938C01EB01CA01B9010E941D2580E757
S1134AA098E00E94AC24CE010E94AC2400D000D037
S1134AB08EE798E0EDB7FEB7928381831483038376
S1134AC00E949E240F900F900F900F9081E090E031
S1134AD0DF91CF911F910F9108955058BB27AA27BA
S1134AE00ED075C166D130F06BD120F031F49F3F08
S1134AF011F41EF45BC10EF4E095E7FB51C1E92FFC
S1134B0077D180F3BA17620773078407950718F003
S1134B1071F49EF58FC10EF4E0950B2EBA2FA02DE3
S1134B200B01B90190010C01CA01A0011124FF2756
S1134B30591B99F0593F50F4503E68F11A16F04051
S1134B40A22F232F342F4427585FF3CF4695379550
S1134B502795A795F0405395C9F77EF41F16BA0B15
S1134B60620B730B840BBAF09150A1F0FF0FBB1FC3
S1134B70661F771F881FC2F70EC0BA0F621F731F0C
S1134B80841F48F4879577956795B795F7959E3F69
S1134B9008F0B3CF9395880F08F09927EE0F9795F7
S1134BA087950895D9D008F481E008950CD00FC1F9
S1134BB007D140F0FED030F021F45F3F19F0F0C08F
S1134BC0511139C1F3C014D198F39923C9F3552372
S1134BD0B1F3951B550BBB27AA27621773078407EC
S1134BE038F09F5F5F4F220F331F441FAA1FA9F3A2
S1134BF033D00E2E3AF0E0E830D091505040E69594
S1134C00001CCAF729D0FE2F27D0660F771F881FF4
S1134C10BB1F261737074807AB07B0E809F0BB0BE3
S1134C20802DBF01FF2793585F4F2AF09E3F510507
S1134C3068F0B6C000C15F3FECF3983EDCF38695A4
S1134C4077956795B795F7959F5FC9F7880F911D7D
S1134C509695879597F90895E1E0660F771F881F69
S1134C60BB1F621773078407BA0720F0621B730B1C
S1134C70840BBA0BEE1F88F7E095089504D068946E
S1134C80B111D9C00895BCD088F09F5790F0B92FC6
S1134C909927B751A0F0D1F0660F771F881F991F8D
S1134CA01AF0BA95C9F712C0B13081F0C3D0B1E09F
S1134CB00895C0C0672F782F8827B85F39F0B93FAF
S1134CC0CCF3869577956795B395D9F73EF490958F
S1134CD08095709561957F4F8F4F9F4F0895E8940D
S1134CE009C097FB3EF490958095709561957F4F30
S1134CF08F4F9F4F9923A9F0F92F96E9BB279395DE
S1134D00F695879577956795B795F111F8CFFAF4ED
S1134D10BB0F11F460FF1BC06F5F7F4F8F4F9F4F1E
S1134D2016C0882311F096E911C0772321F09EE87C
S1134D30872F762F05C0662371F096E8862F70E0E2
S1134D4060E02AF09A95660F771F881FDAF7880FBC
S1134D509695879597F90895990F0008550FAA0B12
S1134D60E0E8FEEF16161706E807F907C0F012167A
S1134D701306E407F50798F0621B730B840B950B7D
S1134D8039F40A2661F0232B242B252B21F40895D2
S1134D900A2609F4A140A6958FEF811D811D08956F
S1134DA097F99F6780E870E060E008959FEF80ECDA
S1134DB0089500240A94161617061806090608957D
S1134DC000240A9412161306140605060895092EE3
S1134DD00394000C11F4882352F0BB0F40F4BF2B52
S1134DE011F460FF04C06F5F7F4F8F4F9F4F089592
S1134DF057FD9058440F551F59F05F3F71F0479588
S1134E00880F97FB991F61F09F3F79F0879508956C
S1134E10121613061406551FF2CF4695F1DF08C08B
S1134E20161617061806991FF1CF869571056105A8
S1134E3008940895E894BB2766277727CB0197F950
S1134E4008958ADF08F48FEF08950BD0C0CFB1DF47
S1134E5028F0B6DF18F0952309F0A2CFA7CF1124CC
S1134E60EACFC6DFA0F3959FD1F3950F50E0551F0D
S1134E70629FF001729FBB27F00DB11D639FAA27AB
S1134E80F00DB11DAA1F649F6627B00DA11D661FFA
S1134E90829F2227B00DA11D621F739FB00DA11D1B
S1134EA0621F839FA00D611D221F749F3327A00DD5
S1134EB0611D231F849F600D211D822F762F6A2F71
S1134EC011249F5750408AF0E1F088234AF0EE0FF6
S1134ED0FF1FBB1F661F771F881F91505040A9F703
S1134EE09E3F510570F05CCFA6CF5F3FECF3983E38
S1134EF0DCF3869577956795B795F795E7959F5F6A
S1134F00C1F7FE2B880F911D9695879597F9089503
S1134F1097FB092E07260AD077FD04D02ED006D0A1
S1134F2000201AF4709561957F4F0895F6F79095D7
S1134F3081959F4F0895A1E21A2EAA1BBB1BFD0168
S1134F400DC0AA1FBB1FEE1FFF1FA217B307E40764
S1134F50F50720F0A21BB30BE40BF50B661F771FBC
S1134F60881F991F1A9469F760957095809590959C
S1134F709B01AC01BD01CF010895AA1BBB1B51E1EC
S1134F8007C0AA1FBB1FA617B70710F0A61BB70BB5
S1134F90881F991F5A95A9F780959095BC01CD015A
S1094FA00895F894FFCF10
S1134FA6252E3673002D2564005741524E00455276
S1134FB652003A252E2A730A000A0A5352435B25E5
S1134FC62E36732D25645D2C204453545B252E36D2
S1134FD6732D25645D0D0A007669613A205B252EE2
S1134FE636732D25645D0D0A00444154413A20254B
S1134FF62E2A730D0A00424F4F5445440A00544E5C
S1135006432025640A003C4E554C4C3E003F3F3F2E
S1135016009201D201F20120002000009E0112023A
S1135026320220002000003C4E554C4C3E003F3FCF
S11350363F006515691576158D156C15BA15991504
S1135046B015B815B915BD15BA1530313233343526
S113505636373839414243444546303132333435A4
S10D50663637383961626364656609
S9030000FC
