S0120000696D616765732F617072732E73313987
S11300000C9458040C9475040C9475040C947504A5
S11300100C9475040C9475040C9475040C94750478
S11300200C9475040C9475040C9475040C94750468
S11300300C9475040C9475040C94F3150C947504C9
S11300400C9475040C94C6170C9451170C94021755
S11300500C9475040C94551C0C9475040C94750440
S11300600C9475040C947504626572746F732F6B31
S113007065726E2F6B66696C652E63006664006240
S11300806572746F732F6B65726E2F6B66696C6526
S11300902E680066642D3E636C6561726572720041
S11300A0626572746F732F6B65726E2F6B66696C09
S11300B0652E680066642D3E666C75736800626523
S11300C072746F732F6B65726E2F6B66696C652E1D
S11300D0680066642D3E7365656B00626572746FBB
S11300E0732F6B65726E2F6B66696C652E630030BF
S11300F000626572746F732F6B65726E2F6B666925
S11301006C652E680066642D3E72656164006265EC
S113011072746F732F6B65726E2F6B66696C652ECC
S1130120680066642D3E7772697465006265727456
S11301306F732F6E65742F6166736B2E6300746921
S11301406D65725F696E697469616C697A65640072
S1130150626572746F732F6E65742F6166736B2E94
S1130160680066642D3E5F74797065203D3D204BC8
S113017046545F4146534B00808183848687898A35
S11301808C8E8F9192949597989A9B9D9EA0A2A3F2
S1130190A5A6A7A9AAACADAFB0B2B3B5B6B7B9BA64
S11301A0BCBDBEC0C1C2C4C5C6C8C9CACBCDCECFF2
S11301B0D0D2D3D4D5D6D7D9DADBDCDDDEDFE0E1AB
S11301C0E2E3E4E5E6E7E8E9EAEAEBECEDEEEEEF9C
S11301D0F0F1F1F2F3F3F4F5F5F6F6F7F8F8F9F9CE
S11301E0FAFAFAFBFBFCFCFCFDFDFDFDFEFEFEFE47
S11301F0FEFFFFFFFFFFFFFF626572746F732F6ED8
S113020065742F6166736B2E6300696478203C20EB
S113021053494E5F4C454E00626572746F732F6E86
S113022065742F617832352E63006368616E6E6584
S11302306C00626572746F732F6E65742F6178320F
S1130240352E630063747800626572746F732F6E69
S113025065742F617832352E63006374782D3E63A4
S113026072635F6F7574203D3D20415832355F43A2
S113027052435F434F525245435400626572746F58
S1130280732F6E65742F617832352E63007061743C
S1130290685F6C656E203E3D203200626572746F4B
S11302A0732F6E65742F617832352E63007061741C
S11302B06800626572746F732F6E65742F61783293
S11302C0352E63006973616C6E756D286329207C1B
S11302D07C2063203D3D202720270025733A2043BE
S11302E068616E6E656C206572726F72205B25307A
S11302F034785D0A0025733A204F6E6C792066725B
S1130300616D657320776974686F7574206C6179A9
S11303106572332070726F746F636F6C20617265E5
S11303202068616E646C65642C20676F74205B25A3
S11303303032585D0A0025733A204F6E6C7920558F
S113034049206672616D6573206172652068616E13
S1130350646C65642C20676F74205B253032585DB3
S11303600A00626572746F732F6B65726E2F6B6611
S1130370696C652E680066642D3E6572726F72004A
S1130380626572746F732F6B65726E2F6B66696C26
S1130390652E680066642D3E636C656172657272D9
S11303A000626572746F732F6D776172652F666F6B
S11303B0726D617477722E63006275665F706F6927
S11303C06E746572203E3D206275660000008911DE
S11303D012239B322446AD573665BF74488CC19DA9
S11303E05AAFD3BE6CCAE5DB7EE9F7F88110080189
S11303F093331A22A5562C47B7753E64C99C408D89
S1130400DBBF52AEEDDA64CBFFF976E802218B3024
S1130410100299132667AF763444BD554AADC3BC68
S1130420588ED19F6EEBE7FA7CC8F5D983310A2048
S113043091121803A7772E66B5543C45CBBD42AC48
S1130440D99E508FEFFB66EAFDD874C904428D53E0
S113045016619F702004A9153227BB364CCEC5DF28
S11304605EEDD7FC6888E1997AABF3BA85520C4308
S113047097711E60A1142805B3373A26CDDE44CF08
S1130480DFFD56ECE9986089FBBB72AA06638F72A4
S113049014409D512225AB343006B9174EEFC7FEE8
S11304A05CCCD5DD6AA9E3B8788AF19B87730E62C8
S11304B095501C41A3352A24B1163807CFFF46EEC8
S11304C0DDDC54CDEBB962A8F99A708B0884819570
S11304D01AA793B62CC2A5D33EE1B7F04008C919B8
S11304E0522BDB3A644EED5F766DFF7C8994008578
S11304F09BB712A6ADD224C3BFF136E0C118480998
S1130500D33B5A2AE55E6C4FF77D7E6C0AA583B413
S1130510188691972EE3A7F23CC0B5D14229CB3877
S1130520500AD91B666FEF7E744CFD5D8BB502A437
S113053099961087AFF326E2BDD034C1C3394A2857
S1130540D11A580BE77F6E6EF55C7C4D0CC685D7CF
S11305501EE597F42880A1913AA3B3B2444ACD5B37
S11305605669DF78600CE91D722FFB3E8DD604C7F7
S11305709FF516E4A9902081BBB332A2C55A4C4B17
S1130580D7795E68E11C680DF33F7A2E0EE787F693
S11305901CC495D52AA1A3B03882B193466BCF7AF7
S11305A05448DD59622DEB3C700EF91F8FF706E6B7
S11305B09DD414C5ABB122A0B9923083C77B4E6AD7
S11305C0D5585C49E33D6A2CF11E780F626572745C
S11305D06F732F6472762F74696D65722E630021B8
S11305E074696D65725F696E697469616C697A6555
S11305F06400626572746F732F6472762F74696D10
S113060065722E63002674696D65722D3E6C696E89
S11306106B00626572746F732F6472762F74696DE8
S113062065722E63004952515F454E41424C454428
S1130630282900626572746F732F6472762F74694F
S11306406D65722E6300266E6F64652D3E6C696E57
S11306506B00626572746F732F6472762F74696DA8
S113066065722E63002674696D65722D3E6C696E29
S11306706B00626572746F732F6472762F74696D88
S113068065722E630074696D65722D3E6D616769D4
S11306906320213D2054494D45525F4D4147494314
S11306A05F41435449564500626572746F732F6409
S11306B072762F74696D65722E63002674696D6598
S11306C0722D3E6C696E6B00626572746F732F637A
S11306D070752F6176722F6472762F7365725F6105
S11306E076722E6300756E6974203C205345525F08
S11306F0434E5400626572746F732F6472762F7365
S113070065722E680066642D3E5F74797065203DC5
S11307103D204B46545F53455249414C006265723B
S1130720746F732F6472762F7365722E6300666420
S11307302D3E68772D3E727862756666657200623A
S11307406572746F732F6472762F7365722E6300F3
S113075066642D3E68772D3E7478627566666572B0
S113076000626572746F732F6472762F7365722ED4
S113077063002166642D3E69735F6F70656E00626D
S11307806572746F732F6472762F7365722E6300B3
S1130790756E6974203C20636F756E746F66287380
S11307A065725F68616E646C65732900626572745A
S11307B06F732F7374727563742F6669666F6275D5
S11307C0662E680073697A65203E20310062657286
S11307D0746F732F6472762F7365722E6300706F5B
S11307E072742D3E69735F6F70656E006170727311
S11307F02F68772F68775F6166736B2E6300636879
S1130800203C3D203500626572746F732F6D7761F3
S113081072652F666F726D617477722E63006275F4
S1130820665F706F696E746572203E3D2062756606
S11308300025303258005B25645D2028307825700F
S113084029203D203078256C780A0057616C6C2093
S113085062726F6B656E3A20003A2000203D2030B2
S11308607825700A00496E76616C69642070747230
S11308703A2000257328293A2000257328290A00E4
S1130880417373657274696F6E206661696C656427
S11308903A20000A0A2A2A2A20426552544F532039
S11308A0444247205354415254202A2A2A0A000021
S11308B011241FBECFEFD8E0DEBFCDBF11E0A0E012
S11308C0B1E0EAEDFFE402C005900D92AE3FB1073E
S11308D0D9F714E0AEEFB1E001C01D92A63FB10715
S11308E0E1F70E94371B0C94EB270C9400000F9344
S11308F01F93DF93CF930F92CDB7DEB78C01DC014A
S11309008D919C91892B41F485E091E061EF70E039
S113091049EE50E00E940725D801ED91FC91C801F1
S1130920BE016F5F7F4F41E050E00995019719F0D8
S11309302FEF3FEF03C08981282F30E0C9010F90CA
S1130940CF91DF911F910F910895FF920F931F9301
S1130950DF93CF930F92CDB7DEB7F82E8B01898347
S1130960DB0112968D919C911397892B41F482E2BD
S113097091E06EE071E04FEE50E00E940725D8014F
S11309801296ED91FC911397C801BE016F5F7F4FE2
S113099041E050E00995019719F02FEF3FEF02C0B5
S11309A02F2D30E0C9010F90CF91DF911F910F914E
S11309B0FF900895DF93CF93CDB7DEB7FE0139964C
S11309C08F81988565EA74E04D815E819F010E9464
S11309D04B0ECF91DF9108959FB7F89483E085BBC8
S11309E01092B60014BC15BC82E084BD85B583604A
S11309F085BD16BC89EF87BDEEE6F0E080818E7F71
S1130A0080838081826080839FBF0895DC012D9A5A
S1130A10FC01EA53FF4FA853BF4F8D919C9111974E
S1130A20A85CB040918380839996ED91FC919A974C
S1130A309F968D919C91D097E817F90751F49D9654
S1130A408D919C919E979A969C938E939997808171
S1130A5009C09996ED91FC919A9781919A96FC938D
S1130A60EE939997A853BF4F8602A0011124559580
S1130A7047955595479511965C934E93A85CB04065
S1130A80FD01E453FF4F20813181A653BF4F1196DE
S1130A903C932E9314978D919C911197A65CB04032
S1130AA0840F951F35952795820F931F918380831B
S1130AB0FD01E253FF4F2081220F208330E01816FE
S1130AC019060CF431E0232B20839B96ED91FC91C5
S1130AD09C9760839B962D913C919C979F968D91BA
S1130AE09C91D0972817390729F49D968D919C9154
S1130AF09E9705C09B968D919C919C9701969C9680
S1130B009C938E939B97A253BF4F9C91AE5CB04035
S1130B10892F8695892780FF0AC0FD01E153FF4F85
S1130B208081803214F48F5F01C081508083FD0185
S1130B30E153FF4F8081885F808380340CF455C17A
S1130B408F738083FD01E053FF4F2081220F2083A8
S1130B50A253BF4F9C91AE5CB0409770892F8550D3
S1130B60833010F0933031F4A053BF4F21602C93A5
S1130B70A05DB040A053BF4F8C91A05DB040982FB2
S1130B809695982790959170FD01EC52FF4F8081C6
S1130B90880F982B90839E3709F04BC0D6962D91E1
S1130BA03C91D797DA968D919C91DB97281739075A
S1130BB061F4D8962D913C91D997DC968D919C91B6
S1130BC0DD972817390709F4F5C0D8962D913C9183
S1130BD0D997D6968D919C91D79701972817390765
S1130BE009F4E8C0D896ED91FC91D9978EE78083FB
S1130BF0D8962D913C91D997DC968D919C91DD9757
S1130C002817390729F4DA968D919C91DB9705C052
S1130C10D8968D919C91D9970196D9969C938E9351
S1130C20D897A952BF4F81E08C93A75DB04041E0B3
S1130C30C7C0292F30E0C9018F779070FD01E952B8
S1130C40FF4F8F37910511F41082CFC08081882324
S1130C5009F4CBC0C9018F739070CE9709F4C5C055
S1130C6020FF06C0FD01EA52FF4F80818068808327
S1130C70FD01EB52FF4F80818F5F8083FD01EA52BB
S1130C80FF4F883008F4A5C09081892F8E57823099
S1130C9010F09B31D9F5D6962D913C91D797DA96E1
S1130CA08D919C91DB972817390759F4D8962D918B
S1130CB03C91D997DC968D919C91DD972817390743
S1130CC069F1D8962D913C91D997D6968D919C91A6
S1130CD0D79701972817390709F1D896ED91FC9118
S1130CE0D9978BE18083D8962D913C91D997DC9646
S1130CF08D919C91DD972817390751F4DA968D91DF
S1130D009C91DB97D9969C938E93D89741E00CC025
S1130D10D8968D919C91D9970196F4CFA952BF4F43
S1130D201C92A75DB04040E0D6962D913C91D79798
S1130D30DA968D919C91DB972817390759F4D89648
S1130D402D913C91D997DC968D919C91DD97281734
S1130D50390781F1D8962D913C91D997D6968D91EA
S1130D609C91D79701972817390721F1D896ED91CF
S1130D70FC91D997AA52BF4F8C91A65DB040808355
S1130D80D8962D913C91D997DC968D919C91DD97C5
S1130D902817390729F4DA968D919C91DB9705C0C1
S1130DA0D8968D919C91D9970196D9969C938E93C0
S1130DB0D89706C0A952BF4F1C92A75DB04040E02F
S1130DC0AA52BF4F1C921E92A55DB040442329F045
S1130DD00CC080818695808308C0FD01EE52FF4FD0
S1130DE0808191818160918380832D980895CF9330
S1130DF0DF93EC0188899989AA89BB898B5493452F
S1130E00A644B14441F082E691E060E571E049EC2A
S1130E1050E00E9407258FB7F894CE52DF4F198215
S1130E2018828FBFDF91CF910895CF93DF93EC01A8
S1130E3088899989AA89BB898B549345A644B1446E
S1130E4041F082E691E060E571E049EC50E00E94F7
S1130E5007258FB7F894CE52DF4F288139818FBF91
S1130E60C901DF91CF910895CF93DF93EC01888975
S1130E709989AA89BB898B549345A644B14441F00E
S1130E8082E691E060E571E049EC50E00E940725BC
S1130E90FE01EF52FF4F80818823E9F780E090E064
S1130EA0DF91CF910895AF92BF92CF92DF92EF92EC
S1130EB0FF920F931F93CF93DF93EC015B016A01C1
S1130EC088899989AA89BB898B549345A644B144DE
S1130ED041F082E691E060E571E049EC50E00E9467
S1130EE00725B50145C08FB7F894E090EC04F09065
S1130EF0ED040091EE041091EF048FBF14C02FB7DE
S1130F00F8948091EC049091ED04A091EE04B091DA
S1130F10EF042FBF8E199F09A00BB10B18161906E9
S1130F201A061B069CF14FB7F8942EA93FA988AD69
S1130F3099AD4FBF2817390711F32FB7F894EEA9CD
S1130F40FFA98CAD9DADE817F90731F48AAD9BADCF
S1130F509FAB8EAB808105C0EEA9FFA98191FFAB49
S1130F60EEAB2FBFFB018193BF010894C108D108E8
S1130F70C114D10459F04FB7F8942EA93FA988ADF4
S1130F8099AD4FBF2817390709F0ADCF6A197B090E
S1130F90CB01DF91CF911F910F91FF90EF90DF90E4
S1130FA0CF90BF90AF9008952F923F924F925F924F
S1130FB06F927F928F929F92AF92BF92CF92DF9265
S1130FC0EF92FF920F931F93DF93CF93CDB7DEB7CA
S1130FD028970FB6F894DEBF0FBECDBF98878F83D6
S1130FE07B011A01FC0180899189A289B3898B5400
S1130FF09345A644B14441F082E691E060E571E096
S113100049EC50E00E9407258701B101B2E84B2E5C
S1131010512C2F813885420E531EAEE76A2E712C57
S1131020620E731ED901A058BF4FF4E88F2E912C85
S1131030820E931EE1EDAE2EB12CA20EB31ECC2473
S1131040C39428523F4F3A8329838F8198858652CF
S11310509F4F9C838B8367C0DFB6F894F301808134
S113106091812D813E818217930749F42D913C9102
S11310701197F401808191812817390761F02D912E
S11310803C911197F3018081918140E050E00197F8
S11310902817390711F441E050E0DFBE452BE1F693
S11310A04FB7F8942D913C911197F8018081F90183
S11310B080832D913C911197F401808191812817AF
S11310C0390721F4F2018081918104C08D919C91B2
S11310D01197019611969C938E934FBFF5018081D1
S11310E08823A1F420E430E0EF81F88530A727A31A
S11310F016A215A214A2F501C0822DE230E0E98106
S1131100FA81318320832B9AC092F5040F5F1F4F1D
S11311108FB7F89428E030E0EB81FC8131832083A1
S11311208FBF615070406115710539F0F201019073
S1131130F081E02DFE83ED838FCF9701220D331DC7
S11311402E193F09C90128960FB6F894DEBF0FBEC9
S1131150CDBFCF91DF911F910F91FF90EF90DF9062
S1131160CF90BF90AF909F908F907F906F905F9043
S11311704F903F902F900895CF93DF93DC012D9AE9
S113118090968C919097882309F0FBC092968C914D
S11311909297882309F0A9C0A258BF4F2D913D9181
S11311A08D919C911197A058B0402817390751F49C
S11311B0A652BF4F8D919C911197AA5DB040892B87
S11311C009F460C093968C919397882319F49496AC
S11311D01C92949781E093968C939397FD01E85227
S11311E0FF4F80819181009791F5ED01C258DF4F47
S11311F028813981A058BF4F8D919C911197A05897
S1131200B0402817390731F4FD01E652FF4F8081C1
S113121091811DC0E881F981AC57BF4F8D919C919C
S11312201197A458B040E817F90759F4AE57BF4FC7
S11312308D919C911197A258B040998388838081A5
S11312400AC0E881F9818191F983E88304C0019798
S1131250918380838EE791968C93919791968C914C
S113126091978B31C1F5ED01C258DF4F2881398147
S1131270A058BF4F8D919C911197A058B04028174A
S1131280390749F42B981092F504AF52BF4F1C92C2
S11312902D9880E0B0C0E881F981AC57BF4F8D91A3
S11312A09C911197A458B040E817F90759F4AE5728
S11312B0BF4F8D919C911197A258B0409983888318
S11312C0808105C0E881F9818191F983E883919651
S11312D08C93919706C08E57823018F493961C9283
S11312E0939781E092968C93929793968C9193978F
S11312F08823C9F094968C9194978530A0F09496A5
S11313001C92949797968D919C919897803491050F
S113131019F080E490E002C085E790E098969C93F1
S11313208E9397972AC092968C91929791969C91BE
S11313309197892341F094968C9194978F5F94961A
S11313408C93949713C094961C92949797968D912E
S11313509C9198978034910519F080E490E002C044
S113136085E790E098969C938E93979792968C91AC
S11313709297880F92968C93929788E090968C938C
S1131380909797968D919C91989795962D913C91D5
S11313909697820F931F917096969C938E93959730
S11313A090968C919097815090968C9390972D98CD
S11313B09596CD91DC91969722E0C030D20740F00B
S11313C08AE092E068EF71E048E650E00E94072569
S11313D0FE01F070E038F10530F08FEF90E09C01F1
S11313E02E1B3F0BF901E858FE4F8491CF3FD105E6
S11313F011F008F08095DF91CF910895EF92FF925C
S11314000F931F93CF93DF93EC017B018A018091AB
S1131410F004882341F48EE391E06CE271E040E251
S113142052E00E9407258CEDFE0111928A95E9F79E
S1131430FD8EEC8E1F8F0E8FCE01C1969EA78DA7B9
S11314409CA78BA78BA59CA59AA789A7CE01C59617
S113145098AB8FA7CE01CE969BAF8AAF99AF88AFDA
S113146088AD99AD9FAB8EABCE0183589F4F9DAF96
S11314708CAF40E050E0EBA5FCA510822BA53CA569
S11314808FA598A92817390719F48DA59EA503C01F
S11314908BA59CA501969CA78BA74F5F5F4F4430FB
S11314A0510549F7CE018A579F4FCE57DF4F998395
S11314B08883C258D040FE01E058FF4F9183808357
S11314C080819181C258DF4F99838883CE57D04061
S11314D0FE01EC57FF4FCB53DF4FD183C083C55C74
S11314E0D040C701BE010E94961C8AB1806F8AB9A0
S11314F0239A259A8BE493E5A6E4B1E4888B998B2F
S1131500AA8BBB8B84ED97E09B838A8383E597E06A
S11315109983888384E397E09B878A8785E197E0B2
S11315209D878C8787EF96E09F878E8780E490E085
S113153098A78FA3DF91CF911F910F91FF90EF9008
S11315400895EF92FF920F931F93CF93DF93EC01D3
S11315508B017A01009741F484E492E062E372E043
S11315604DE251E00E9407250115110541F48AE27C
S113157092E068E172E04EE251E00E94072586E5C0
S113158091E0FE019C01119221503040E1F7C65BCD
S1131590DE4F198308832896F982E8828FEF9FEF44
S11315A09A938A93FE0192938293DF91CF911F9134
S11315B00F91FF90EF9008951F93CF93DF93EC0169
S11315C0162F862F8E57823010F06B3151F4C65B84
S11315D0DE4F68817981CA54D1408BE190E00E944A
S11315E0A504DE01A05BBE4F2D913C911197412FC4
S11315F050E0422753275070440F551F44535C4F0B
S1131600FA0185919491232F3327822793278D9371
S11316109C93C65BDE4F68817981812F90E00E94A4
S1131620A504DF91CF911F9108952F923F924F927D
S11316305F926F927F928F929F92AF92BF92CF925E
S1131640DF92EF92FF920F931F93DF93CF9300D01B
S11316500F92CDB7DEB76C015B013A01E22E3983FC
S113166028016115710541F48DEA92E06BE972E09D
S113167046EE50E00E94072522E06216710440F411
S11316808DE892E06BE772E047EE50E00E94072598
S113169080E591E0C80ED91E8FEF9FEFD6018D93A0
S11316A09C93EAEFFFEFCE0EDF1ED6016D917C9185
S11316B0E6EBFEEFCE0EDF1E8EE790E00E94A5045F
S11316C088249924130108942108310861C0D501A4
S11316D00D900020E9F71197AA19BB09BB83AA83CF
S11316E0179720F0E6E0F0E0FB83EA8300E010E0E7
S11316F020C0F501E00FF11FF0808F2D90E00E94D3
S1131700CF27892B59F4F0E2FF1641F084EC92E0E4
S113171062EB72E04BEC50E00E9407258F2D90E0C5
S11317200E94E327682F660FC6010E94DC0A0F5F40
S11317301F4F2A813B8102171307D8F22630310547
S1131740A0F400E010E086E090E0821B930B9B8302
S11317508A8306C0C60160E40E94DC0A0F5F1F4F43
S1131760AA81BB810A171B07A8F380E082149304A3
S113177009F481E0F5016681660F682BC6010E94B9
S1131780DC0A0894811C911C27E030E0A20EB31EF1
S11317908614970408F49BCF8E2D99819C017901BE
S11317A0C60163E00E94DC0AC60160EF0E94DC0A05
S11317B009C0D7016D917D01C6010E94DC0A08941D
S11317C04108510841145104A1F78601005B1E4FE2
S11317D0F8016081F1806095C6010E94DC0AF094F2
S11317E0C6016F2D0E94DC0AD8018D919C91885B03
S11317F0904F41F08AE592E068E472E040E051E005
S11318000E940725EAE4F1E0CE0EDF1ED6016D91B9
S11318107C918EE790E00E94A5040F900F900F90AA
S1131820CF91DF911F910F91FF90EF90DF90CF90B8
S1131830BF90AF909F908F907F906F905F904F90EC
S11318403F902F9008952F923F924F925F926F9204
S11318507F928F929F92AF92BF92CF92DF92EF923C
S1131860FF920F931F93DF93CF93CDB7DEB7C65587
S1131870D0400FB6F894DEBF0FBECDBF7C019C01F3
S1131880265B3E4F61963FAF2EAF6197B5E58B2E39
S1131890B1E09B2E880E991EA4E5AA2EA1E0BA2ED3
S11318A0A80EB91E8C01045B1E4FFEE4CF2EF1E09E
S11318B0DF2EC80ED91ECE010E9665969FAF8EAF51
S11318C06597DE0117966796BFAFAEAF6797EDE0F9
S11318D02E2E312C2E0C3F1C77E4472E512C4C0E0F
S11318E05D1EF701EE5AFE4F6396FFAFEEAF6397AE
S11318F031C1D4018C91882309F0FEC04E375105C3
S113190009F0EEC0F80180819181429708F4DCC0AF
S1131910D6018D919C91885B904F09F0D5C0FE0152
S11319203896D7018D918695803209F480E08193B1
S113193065962EAD3FAD6597E217F30799F7D7018A
S113194016968C91169786958F708E87FE01319628
S113195017968C9117978695803209F480E08193CD
S1131960119667962EAD3FAD6797E217F30781F79F
S11319709101D1018C9186958F708F83F201108231
S11319803E010894611C711C20C011968C91119722
S11319908695803209F480E081931196A617B707E3
S11319A0A1F7295F3F4FFA0163E0EE0FFF1F6A952D
S11319B0E1F7E41BF50BE60DF71DD9018C91869533
S11319C08F70848B9F5FF2019083F9013196D90166
S11319D08C9180FD16C0D2019C91983090F4492FCF
S11319E050E0FA0183E0EE0FFF1F8A95E1F7E41B54
S11319F0F50B3E96E60DF71DD901B9016A5F7F4FDD
S1131A00C4CF808190E02A969FAF8EAF2A9783300F
S1131A109105A9F000D000D000D0EDB7FEB7319603
S1131A2026E333E0ADB7BEB712963C932E931197DD
S1131A30A0E1B1E0B383A283958384831CC0CF016A
S1131A40019621812B962FAF2B97203FF9F000D0E0
S1131A5000D000D0EDB7FEB7319685EF92E0ADB778
S1131A60BEB712969C938E931197A0E1B1E0B38315
S1131A70A283248315820E941D25EDB7FEB73696F6
S1131A800FB6F894FEBF0FBEEDBF1EC00196D8017D
S1131A902D913C9122503040A701481B590B240F33
S1131AA0351F2F963FAF2EAF2F972D969FAF8EAF3A
S1131AB02D976396AEADBFAD6397ED91FC913097D2
S1131AC019F0CE010196099581E0F50180838FEF2D
S1131AD09FEFD6018D939C93F801118210823AC036
S1131AE04F37510511F4D50134C04B31510521F460
S1131AF081E0F40180832EC0D5018C91882341F1CB
S1131B00F80120813181F1E02A343F07F8F4F7012C
S1131B10E20FF31F40832F5F3F4FD8012D933C9377
S1131B20F60120813181E42FF0E0E227F327F07001
S1131B30EE0FFF1FE453FC4F85919491232F33271D
S1131B4082279327D6018D939C9302C0F5011082BE
S1131B50D4011C926196EEADFFAD619780819181B5
S1131B600E947704AC01FFEF8F3F9F0709F0C1CEBD
S1131B706196AEADBFAD61970D911C91F80184855E
S1131B809585892B41F486E793E062E673E04DE0A6
S1131B9051E00E940725D8011C96ED91FC911D97F8
S1131BA0C8010995892B09F45CC0EAE4F1E0EE0E62
S1131BB0FF1ED7010D911C91E6EBFEEFEE0EFF1E0A
S1131BC0D8011C968D919C911D97892B41F486E731
S1131BD093E062E673E04DE051E00E940725D801EE
S1131BE01C96ED91FC911D97C801099500D000D079
S1131BF000D0EDB7FEB731962BED32E0ADB7BEB7EE
S1131C0012963C932E93119725E131E0338322837E
S1131C10958384830E941D25EAE4F1E0EE0EFF1E05
S1131C20D7010D911C91EDB7FEB736960FB6F89417
S1131C30FEBF0FBEEDBFD8011E968D919C911F97DC
S1131C40892B41F484E993E060E873E043E151E0D7
S1131C500E940725D8011E96ED91FC911F97C8019B
S1131C600995CA5ADF4F0FB6F894DEBF0FBECDBF39
S1131C70CF91DF911F910F91FF90EF90DF90CF9064
S1131C80BF90AF909F908F907F906F905F904F9098
S1131C903F902F9008952F923F924F925F926F92B0
S1131CA07F928F929F92AF92BF92CF92DF92EF92E8
S1131CB0FF920F931F93DF93CF93CDB7DEB7CC5929
S1131CC0D0400FB6F894DEBF0FBECDBF8C01CD5609
S1131CD0DF4F79836883C359D040CB56DF4F598394
S1131CE04883C559D0405901C057DF4F1982188223
S1131CF0C059D0409E012F5F3F4FC556DF4F3983F7
S1131D002883CB59D040AE014A575F4FC756DF4FA7
S1131D1059834883C959D04041C0882321F5C0570D
S1131D20DF4F8881C059D040CF56DF4F9881C159C9
S1131D30D040C456DF4F0FB6F894DEBF0FBECDBF00
S1131D40CF91DF911F910F91FF90EF90DF90CF9093
S1131D50BF90AF909F908F907F906F905F904F90C7
S1131D603F902F900895CB56DF4F68817981C559F4
S1131D70D040CD56DF4FA881B981C359D040FD0171
S1131D800995C057DF4FE881F981C059D040319699
S1131D90C057DF4FF983E883C059D040D8018D91F3
S1131DA08D01853209F0B9CF8C918532F1F40F5F42
S1131DB01F4FCB56DF4F68817981C559D040CD562E
S1131DC0DF4FE881F981C359D0400995C057DF4FEF
S1131DD028813981C059D0402F5F3F4FC057DF4F12
S1131DE039832883C059D040D9CFC956DF4F3881B1
S1131DF0C759D040347BC956DF4F3883C759D040C8
S1131E00C856DF4F4881C859D0404C7FC856DF4F71
S1131E104883C859D040D8018C918B32A1F08C32C0
S1131E2034F4803249F0833209F040C025C08D3249
S1131E30B9F08033D9F52CC0C956DF4F8881C75912
S1131E40D040837081F5C956DF4FB881C759D0405F
S1131E50BC7FB160C956DF4FB883C759D04023C097
S1131E60C956DF4FE881C759D040E860C956DF4FF3
S1131E70E883C759D04017C0C956DF4FF881C75906
S1131E80D040F064C956DF4FF883C759D0400BC027
S1131E90C856DF4F2881C859D0402160C856DF4F4B
S1131EA02883C859D0400F5F1F4FB5CF8A3239F00D
S1131EB0C257DF4F19821882CE58D0404BC0D5018B
S1131EC00D90BC91A02DC257DF4FB983A883CE5883
S1131ED0D040B7FF14C0B095A195BF4FC257DF4F94
S1131EE0B983A883CE58D040C956DF4FB881C759AB
S1131EF0D040B860C956DF4FB883C759D040E2E03C
S1131F00F0E0AE0EBF1E0F5F1F4F2AC0C257DF4F57
S1131F1088819981CE58D04073E0880F991F7A95B3
S1131F20E1F7C257DF4F48815981CE58D040440F62
S1131F30551F840F951FA22FBB27A7FDB095D097DF
S1131F40A80FB91FC257DF4FB983A883CE58D0401A
S1131F500F5F1F4FF8012081822F80538A30B0F227
S1131F60C956DF4FF881C759D040F695F695F695D6
S1131F70F170CE56DF4FF883C259D040FF2359F099
S1131F80C856DF4F2881C859D0402E7FC856DF4F2E
S1131F902883C859D040D8018C918E3221F0662410
S1131FA06A94762C2FC00F5F1F4FF80180818A320C
S1131FB019F06624772420C0D5016D907C900F5FC2
S1131FC01F4FE2E0F0E0AE0EBF1E1CC0C30143E0B1
S1131FD0880F991F4A95E1F7660C771C860D971DAB
S1131FE0622E772467FC709420ED3FEF620E731E1F
S1131FF0680E791E0F5F1F4FD8012C91822F8053DA
S11320008A3020F3C956DF4FB881C759D040BF7C0E
S1132010C956DF4FB883C759D040F801808188364C
S1132020B1F089361CF48C34F9F405C08C3619F0FF
S11320308A37D1F417C0C956DF4FF881C759D04049
S1132040F061C956DF4FF883C759D0400BC0C95659
S1132050DF4F2881C759D0402062C956DF4F2883FB
S1132060C759D0400F5F1F4FC757DF4F19830883ED
S1132070C958D040D801ED91C757DF4FB983A88321
S1132080C958D040C357DF4FE883CD58D040E53618
S113209009F45FC0E636ECF4E33509F471C0E435C5
S11320A054F4E53409F455C0E73409F407C2EE23C7
S11320B009F448C041C0C357DF4FF881CD58D04020
S11320C0F33609F449C0F4360CF0DEC0F835A1F556
S11320D026C0C357DF4F2881CD58D0402037F9F0B0
S11320E0213744F4273609F4E9C1273684F0293628
S11320F019F5CAC0C357DF4F3881CD58D0403537A2
S113210071F0383709F47FC03337B1F444C0CC24BC
S1132110DD24C357DF4F1882CD58D040E7C12EEEDF
S1132120C22E21E0D22EC357DF4F4881CD58D04074
S1132130403709F078C06CC0C757DF4F0881198158
S1132140C958D04095E8892E91E0992EF401339630
S11321502BC4CC24DD24CAC1D5018C918983C757F3
S1132160DF4F08811981C958D040E2E0F0E0AE0E9B
S1132170BF1E4E010894811C911CFE01329614C4AA
S1132180C856DF4FF881C859D040F260C856DF4FB7
S1132190F883C859D040A5014E5F5F4FD5018D909B
S11321A09C908114910421F48EE7882E81E0982E6E
S11321B077FE04C000E1602E07E2702EC856DF4FA0
S11321C0B881C859D040B1FD04C0F40120E030E02A
S11321D012C0F40120E030E003C031962F5F3F4F7E
S11321E08491882309F4CCC326153705B4F3C8C3F6
S11321F031962F5F3F4F8081882309F4C1C3261590
S11322003705B4F3BDC31EEDC12E11E0D12E0BC0B2
S1132210F501808191817C0100E010E022E030E052
S1132220A20EB31E18C0C956DF4F3881C759D0401B
S113223034FF0AC0D501ED90FD900D911C91E4E0AE
S1132240F0E0AE0EBF1E07C0F501619171917B01F4
S113225000E010E05F0180E0C357DF4F3881CD58C4
S1132260D040353709F081E0880F880FC956DF4F19
S11322704881C759D0404B7F482B4C7FC956DF4F0C
S11322804883C759D04040C0C956DF4F5881C75909
S1132290D04054FF08C0D501ED90FD900D911C91E4
S11322A0E4E0F0E00AC0D5018D919C917C01002707
S11322B0F7FC0095102FE2E0F0E0AE0EBF1E17FF12
S11322C014C0C956DF4FF881C759D040FC7FF26073
S11322D0C956DF4FF883C759D04010950095F09444
S11322E0E094E11CF11C011D111DC956DF4F28812A
S11322F0C759D0402B7FC956DF4F2883C759D040D8
S1132300BEEECB2EB1E0DB2E5524E114F104010521
S1132310110511F055245394852D879588278795A9
S1132320C956DF4F3881C759D0403F77382BC9563B
S1132330DF4F3883C759D0406114710441F45520EC
S113234031F4A6E88A2E912C8C0E9D1E6FC0C956BE
S1132350DF4F8881C759D04086958695817090E07B
S1132360009741F0019761F1F6E88F2E912C8C0EC5
S11323709D1E40C0E6E88E2E912C8C0E9D1EC80139
S1132380B7012AE030E040E050E00E949927F601CE
S1132390E60FF71F8081D4018E934D01C801B70168
S11323A02AE030E040E050E00E949927C901DA01B8
S11323B07C018D01E114F1040105110501F71AC036
S11323C076E8872E912C8C0E9D1EF701EF70F0702D
S11323D0EC0DFD1D8081F40182934F0164E016959C
S11323E00795F794E7946A95D1F7E114F104010590
S11323F0110559F777FE1AC0C856DF4FF881C8593E
S1132400D040F0FF13C020E030E0C956DF4F888190
S1132410C759D040837011F021E030E0C257DF4F3C
S113242068807980CE58D040621A730AC756DF4F4D
S113243088819981C959D0408819990905C0D40166
S1132440E0E3EE934D01019686159705C4F3C95652
S1132450DF4FF881C759D040F6FF15C0552099F0D9
S1132460C357DF4F2881CD58D040283711F0283585
S113247051F4D401C357DF4FE881CD58D040EE93D7
S1132480E0E3EE934D01C556DF4F28813981CB59E6
S1132490D0408216930640F489EB93E061EA73E03E
S11324A048EB52E00E940725C757DF4F0881198186
S11324B0C958D040FE01EA57FF4F76C2C357DF4FD9
S11324C03881CD58D0403250C357DF4F3883CD5870
S11324D0D0406114710439F451E0652E712C41E04F
S11324E0C42ED12C08C031E0C32ED12C77FE03C0FA
S11324F026E0622E712CA5014C5F5F4FC957DF4F58
S113250059834883C758D040D501ED90FD900D9173
S11325101C91C801B70120E030E040E050E00E9487
S1132520D025882384F4C956DF4FB881C759D040D9
S1132530BC7FB260C956DF4FB883C759D04017FB80
S1132540109517F9109591E0892E912C8C0E9D1EF3
S1132550C257DF4FE881F981CE58D0408E0E9F1EBE
S1132560C557DF4FC882CB58D040C956DF4FF881DA
S1132570C759D040F295F695F695F170C457DF4FE0
S1132580F883CC58D040C801B70120E030E040E8DF
S11325905FE30E941F278823A4F1442455240EC01E
S11325A0C801B70129EF32E045E150E50E94D42586
S11325B07B018C012AE030E0420E531EC801B701B2
S11325C027EB33E44AEB51E50E941F2787FFE8CF4E
S11325D00DC0C801B70120E030E040E251E40E94A0
S11325E0D4257B018C010894411C511CC801B701FE
S11325F020E030E040E251E40E941F2787FFE9CF4A
S113260040C0C801B70120E030E040E050E00E9443
S1132610D025882319F44424552433C04424552454
S11326200EC0C801B70129EF32E045E150E50E9430
S113263023277B018C0146EF5FEF440E551EC80132
S1132640B7012FEF36EE4BED5EE20E94D02518164F
S113265044F70DC0C801B70120E030E040E251E486
S11326600E9423277B018C01089441085108C8016A
S1132670B70120E030E040E85FE30E94D02587FD09
S1132680E9CFC557DF4F5881CB58D040552351F17E
S11326904614570464F48CEF48168FEF58063CF048
S11326A064187508C357DF4F1882CD58D04008947A
S11326B061087108C457DF4F9881CC58D0409923E2
S11326C061F4A1E0C457DF4FA883CC58D040C5576C
S11326D0DF4FA883CB58D04005C0C557DF4F1882C1
S11326E0CB58D040C357DF4FB881CD58D040BB231F
S11326F029F064015301222433246DC057FE31C0F4
S1132700F40120E321936F016114710451F4C4575F
S1132710DF4F3881CC58D040332319F4AA24BB248A
S113272005C0D601EEE2ED936D01530180E090E027
S113273007C0D601E0E3ED936D010894A108B10848
S11327400197481659061CF4A114B10491F760943A
S11327507094461457040CF48FC081E0282E312C59
S11327603AC022243324241835086401530133C0A9
S1132770C801B7010E943C269B01862F805DD601CB
S11327808D936D012114310471F4A114B10439F451
S1132790C457DF4FB881CC58D040BB2321F0F60199
S11327A04EE241936F01B901882777FD8095982FF8
S11327B00E946F269B01AC01C801B7010E946B25E2
S11327C020E030E040E251E40E9423277B018C01A9
S11327D00894211C311CA214B30454F6C801B70197
S11327E020E030E040EA50E40E941F2788230CF4E4
S11327F043C0F601319781E090E020812E3259F0F8
S1132800820F80838A3319F080E090E004C050E3A3
S1132810508381E090E08E169F0610F43197EDCF3F
S1132820892B51F1C357DF4F8881CD58D04088237D
S1132830B1F0F6010DC0DF018E918E3229F432978A
S113284080813296808302C08083DF01FD0131974D
S11328508E169F0680F30894411C511C0AC00894EC
S1132860C11CD11CF60102C0829181838E169F0681
S1132870D8F3E1E3D401EC93C557DF4FF881CB588B
S1132880D040FF2351F0F601429196016F0140338D
S1132890D1F369014E3209F46F01C357DF4F288128
S11328A0CD58D040222311F4F60142C0F601C3579B
S11328B0DF4F3881CD58D0403193319657FE09C04F
S11328C02DE2D60111962C935094419451085394BF
S11328D004C02BE2D60111962C933A9600E010E046
S11328E00F5F1F4FC2016AE070E00E948627805D7F
S11328F08193C2016AE070E00E9486272B01611572
S1132900710571F7023011055CF39F01201B310B37
S1132910AF014B505040D9018D919D01DA018C9348
S1132920015010404150504010161106A4F33A973C
S1132930C856DF4FB881C859D040B0FF29C020E045
S113294030E0C956DF4F8881C759D040837011F0F9
S113295021E030E0C257DF4F48815981CE58D04042
S1132960421B530B9A01CF018819990905C0D40160
S113297040E34E934D01019682179307C4F308C0B8
S1132980C757DF4F08811981C958D0405A010CC07C
S1132990C757DF4F08811981C958D040C957DF4F45
S11329A0A880B980C758D0407F01E818F908C257F9
S11329B0DF4F88819981CE58D0408E159F051CF435
S11329C0CC24DD2416C0C257DF4F48815981CE582C
S11329D0D0404E195F0920E030E0C956DF4F8881AE
S11329E0C759D040837011F021E030E06A01C21A67
S11329F0D30ACE56DF4F9881C259D0409923E9F0CB
S1132A0021C080E2CB56DF4F68817981C559D0401F
S1132A10CD56DF4FA881B981C359D040FD01099536
S1132A20C057DF4FE881F981C059D0403196C05773
S1132A30DF4FF983E883C059D0400894C108D10816
S1132A40D7FEDFCFC956DF4F8881C759D040837086
S1132A5009F1813011F08DE201C08BE2CB56DF4FDA
S1132A6068817981C559D040CD56DF4F288139819D
S1132A70C359D040F9010995C057DF4F48815981A6
S1132A80C059D0404F5F5F4FC057DF4F59834883D1
S1132A90C059D040C856DF4F5881C859D04051FD65
S1132AA022C045C0F4010894811C911CE4918E2F2E
S1132AB0CB56DF4F68817981C559D040CD56DF4F61
S1132AC0A881B981C359D040FD010995C057DF4F92
S1132AD0E881F981C059D0403196C057DF4FF9835E
S1132AE0E883C059D0400894E108F108F7FEDACF32
S1132AF023C0D4018D914D01CB56DF4F688179817C
S1132B00C559D040CD56DF4FE881F981C359D04033
S1132B100995C057DF4F28813981C059D0402F5FB4
S1132B203F4FC057DF4F39832883C059D0400894A2
S1132B30E108F108F7FEDDCFCE56DF4F3881C259E8
S1132B40D0403323E9F42AC980E2CB56DF4F6881B1
S1132B507981C559D040CD56DF4F48815981C35939
S1132B60D040FA010995C057DF4F88819981C05937
S1132B70D0400196C057DF4F99838883C059D04015
S1132B800894C108D108D7FEDFCF08C982E092E0DB
S1132B909093FF018093FE0104971092010210921A
S1132BA00002109203021092020290930502809395
S1132BB004021092EC041092ED041092EE041092B0
S1132BC0EF040E94EC048091F004882341F08FED1F
S1132BD095E06CEC75E041E851E00E94072581E046
S1132BE08093F00408951F920F920FB60F92112450
S1132BF00F931F932F933F934F935F936F937F9301
S1132C008F939F93AF93BF93CF93DF93EF93FF93F0
S1132C108091EC049091ED04A091EE04B091EF0446
S1132C200196A11DB11D8093EC049093ED04A09333
S1132C30EE04B093EF040BEA1AEB38C08FB7F894A4
S1132C402091EC043091ED044091EE045091EF0496
S1132C508FBF88859985AA85BB85281B390B4A0BAC
S1132C605B0B57FD2CC0CF3FD10509F048F4CE01D2
S1132C7065E076E042EF55E029EC30E00E94432520
S1132C80AA81BB818881998111969C938E93E88156
S1132C90F981B383A2831B821A82198218821B8B47
S1132CA00A8BEC85FD85CE010C960995C091FE0139
S1132CB0D091FF0188819981892B09F0BFCFFF91C1
S1132CC0EF91DF91CF91BF91AF919F918F917F91C0
S1132CD06F915F914F913F912F911F910F910F90A1
S1132CE00FBE0F901F90189588E98093C100089536
S1132CF01092C1000895FC018285882329F481E0A3
S1132D00828788EB8093C10008959A01AB01CA01C0
S1132D10B9019695879577956795605C7D4B804F53
S1132D209F4F0E949927215030403093C500209333
S1132D30C4000895E2ECF0E08081A4E0660F771F00
S1132D40AA95E1F78F7C862B808308959FB7F8942A
S1132D5084B1886284B99FBF8FB7F894229A8FBFD9
S1132D608FB7F89424988FBF80ED8CBD8CB58160AB
S1132D708CBD8DB58E7F8DBD08951CBC9FB7F89416
S1132D8084B1837C84B99FBF0895FC014FB7F89444
S1132D908285882381F5A091F304B091F4045F96B1
S1132DA02D913C91909791968D919C919297281793
S1132DB0390709F181E082875F96ED91FC91909744
S1132DC095968D919C919697E817F90751F49396EF
S1132DD08D919C91949790969C938E935F9780810C
S1132DE009C05F96ED91FC91909781919096FC9328
S1132DF0EE935F978EBD4FBF089508950895FC012B
S1132E00828508951F920F920FB60F9211242F936B
S1132E103F938F939F93AF93BF93EF93FF93A091AF
S1132E20F104B091F2045F962D913C9190979196A4
S1132E308D919C9192972817390731F488E98093F2
S1132E40C1001092930120C05F96ED91FC91909780
S1132E5095968D919C919697E817F90751F493965E
S1132E608D919C91949790969C938E935F9780817B
S1132E7009C05F96ED91FC91909781919096FC9397
S1132E80EE935F978093C600FF91EF91BF91AF914E
S1132E909F918F913F912F910F900FBE0F901F9094
S1132EA018951F920F920FB60F9211242F933F93F0
S1132EB04F938F939F93AF93BF93EF93FF93A091FF
S1132EC0F104B091F2049F969C919F978091C00069
S1132ED08871892B9F968C939F974091C6009796F3
S1132EE02D913C9198979B968D919C919C97281736
S1132EF0390759F499962D913C919A979D968D9105
S1132F009C919E972817390761F099962D913C91D1
S1132F109A9797968D919C919897019728173907BE
S1132F20B1F49F968C919F9781609F968C9320C05B
S1132F309B968D919C919C9705C099968D919C919F
S1132F409A9701969A969C938E93999711C0999605
S1132F50ED91FC919A97408399962D913C919A9783
S1132F609D968D919C919E972817390731F7E0CF54
S1132F70FF91EF91BF91AF919F918F914F913F91AD
S1132F802F910F900FBE0F901F9018951F920F92C4
S1132F900FB60F9211242F933F938F939F93AF9368
S1132FA0BF93EF93FF93A091F304B091F404979629
S1132FB02D913C9198979B968D919C919C97281765
S1132FC0390759F499962D913C919A979D968D9134
S1132FD09C919E972817390759F199962D913C9108
S1132FE09A9797968D919C919897019728173907EE
S1132FF0F9F08EB59996ED91FC919A978083999604
S11330002D913C919A979D968D919C919E9728170E
S1133010390729F49B968D919C919C9705C09996AC
S11330208D919C919A9701969A969C938E939997D9
S1133030A091F304B091F4045F962D913C91909784
S113304091968D919C9192972817390701F15F967B
S1133050ED91FC91909795968D919C919697E81798
S1133060F90751F493968D919C91949790969C9323
S11330708E935F97808109C05F96ED91FC91909744
S113308081919096FC93EE935F978EBD02C010924F
S11330909E01FF91EF91BF91AF919F918F913F91CD
S11330A02F910F900FBE0F901F901895CF93DF9321
S11330B0EC018230910544F085EE96E068EC76E010
S11330C047E952E00E9407258BE090E0C89F9001F9
S11330D0C99F300DD89F300D112427573E4FC90189
S11330E0DF91CF9108951F93182FDB01EFB7F89468
S11330F05F968D919C91909793966D917C91949706
S113310016C091962D913C91929795968D919C9194
S113311096972817390771F441E050E0EFBF452B2B
S1133120C1F0EFB7F8945F968D919C9190978617B4
S1133130970739F391962D913C9192975F968D91D3
S11331409C91909740E050E001972817390731F798
S1133150E3CF4FB7F8949196ED91FC919297108339
S113316091962D913C91929795968D919C919697DD
S11331702817390729F493968D919C91949705C04B
S113318091968D919C919297019692969C938E9391
S113319091974FBFD096ED91FC91D197A081B181C9
S11331A018962D913C911997CF01F9010995812F1A
S11331B090E01F910895DC014FB7F89497962D91F4
S11331C03C91989799968D919C919A974FBF281707
S11331D0390799F44FB7F89497962D913C919897A5
S11331E099968D919C919A974FBF2817390729F486
S11331F09F968C919F97897B69F39F968C919F975B
S1133200897B19F02FEF3FEF23C02FB7F8949796DF
S1133210ED91FC9198979D968D919C919E97E817BE
S1133220F90751F49B968D919C919C9798969C9349
S11332308E939797808109C09796ED91FC9198970A
S113324081919896FC93EE9397972FBF282F30E0A7
S1133250C9010895FC01A0A9B1A9ED91FC911197B0
S11332600480F581E02DCD0109950895CF92DF9278
S1133270EF92FF920F931F93CF93DF93EC017B01A7
S11332808A0188899989AA89BB898C549245A54465
S1133290B34541F085E097E064EF76E04DEB50E014
S11332A00E9407256E01C0E0D0E00EC0F701EC0FCC
S11332B0FD1F8081992787FD9095B6010E947318A0
S11332C08F5F9F4F21F021960C171D0779F7CE01D0
S11332D0DF91CF911F910F91FF90EF90DF90CF90EE
S11332E00895CF93DF93EC0188899989AA89BB89D2
S11332F08C549245A544B34541F085E097E064EFD2
S113330076E04DEB50E00E9407252F8D38A189A16E
S11333109AA128173907C9F7E8A9F9A9A081B181A9
S11333201A962D913C911B97CF01F9010995882399
S113333061F780E090E0DF91CF910895CF93DF9320
S1133340EC0188899989AA89BB898C549245A54442
S1133350B34541F085E097E064EF76E04DEB50E053
S11333600E9407251FA6DF91CF910895CF93DF9385
S1133370EC0188899989AA89BB898C549245A54412
S1133380B34541F085E097E064EF76E04DEB50E023
S11333900E9407258FA590E0DF91CF910895CF92E9
S11333A0DF92EF92FF920F931F93CF93DF93EC0181
S11333B07B018A0188899989AA89BB898C549245A1
S11333C0A544B34541F085E097E064EF76E04DEB2A
S11333D050E00E9407256E01C0E0D0E00CC0C60199
S11333E00E94DB182FEF8F3F920741F0F701EC0F9B
S11333F0FD1F80832196C017D10788F3CE01DF918A
S1133400CF911F910F91FF90EF90DF90CF9008958F
S1133410CF93DF93EC0188899989AA89BB898C545D
S11334209245A544B34541F085E097E064EF76E02A
S11334304DEB50E00E9407258E8D882341F48EEDDC
S113344097E06DEC77E044E851E00E9407251E8E7A
S1133450CE010E947119A8A9B9A9ED91FC91119707
S11334600280F381E02DCD01099519AA18AA2FB77E
S1133470F89489A59AA598A78FA32FBF2FB7F8947E
S113348089A19AA198A38F8F2FBF80E090E0DF914C
S1133490CF910895EF92FF920F931F93CF93DF93F1
S11334A0EC018B016230710540F080E997E06FE731
S11334B077E04BE551E00E940725F801EE0FFF1F6E
S11334C0EF50FB4FD183C0838E8D882341F082E778
S11334D097E061E677E04EE551E00E94072581E040
S11334E08E8F1D8F0C8FC8010E945618FC0199AB5A
S11334F088AB82819381892B41F480E597E06FE367
S113350077E046E651E00E940725E8A9F9A98481FD
S11335109581892B41F48EE297E06DE177E047E6EF
S113352051E00E940725E8A9F9A902811381E680E8
S1133530F78082E0E816F10440F484EC97E06CEA4A
S113354077E04EE151E00E9407251CA30BA31AA3C8
S113355009A389A19AA198A38F8F0894E108F1087F
S11335600E0D1F1D1EA30DA3E8A9F9A90481158141
S1133570E084F18482E0E816F10440F484EC97E0FE
S11335806CEA77E04EE151E00E9407251CA70BA7E7
S11335901AA709A789A59AA598A78FA30894E10853
S11335A0F1080E0D1F1D1EA70DA7A8A9B9A9ED911D
S11335B0FC9111970190F081E02DCD01BE01099598
S11335C01FA6CE01DF91CF911F910F91FF90EF9035
S11335D00895FC0182E3DF011D928A95E9F78CE4EA
S11335E092E5A5E4B3E5808B918BA28BB38B87E145
S11335F09BE19583848388E09AE1978386838FECAB
S113360099E19183808386E399E19383828381E7BF
S113361099E19387828786EB99E1958784878EE980
S113362099E197878687CF010E944A1A0895CF931C
S1133630DF93EC0188899989AA89BB898C549245C6
S1133640A544B34541F085E097E064EF76E04DEBA7
S113365050E00E940725CE010E94081A6C8D7D8DD2
S1133660CE010E944A1ACE01DF91CF910895CF92E4
S1133670DF92EF92FF920F931F9378940E94AA24F3
S11336800E94C61586E892E060E070E040E050E0F9
S11336900E94FE0982E693E066E872E04BE95BE192
S11336A00E94A10A88EB94E060E070E00E94E91AAD
S11336B088EB94E040E052EC61E070E00E942A194B
S11336C08FB7F894C090EC04D090ED04E090EE0431
S11336D0F090EF048FBF82E693E00E94230C2FB793
S11336E0F8948091EC049091ED04A091EE04B091D3
S11336F0EF042FBF8C199D09AE09BF0989599A435C
S1133700A040B04044F38FB7F894C090EC04D0903C
S1133710ED04E090EE04F090EF048FBF82E693E0B6
S11337206FE971E044E050E029E131E008E210E0A3
S11337300E94150BD0CF8F929F92AF92BF92CF92DF
S1133740DF92EF92FF920F931F93CF93DF93EC01DD
S11337508DB79EB70C970FB6F8949EBF0FBE8DBF62
S1133760EDB7FEB7319608EB14E0ADB7BEB71296CD
S11337701C930E93119781E491E093838283D58304
S1133780C4838E81868317822796D187C087279723
S11337908D85828713860E94DA046E01EE24FF244D
S11337A0EDB7FEB73C960FB6F894FEBF0FBEEDBF63
S11337B036E4A32EB12CAC0EBD1E480100E611E088
S11337C033C08DB79EB708970FB6F8949EBF0FBE4F
S11337D08DBFEDB7FEB73196ADB7BEB711968C92DB
S11337E0119712969C9213830283C70123E0880FDA
S11337F0991F2A95E1F78E199F090E968C0F9D1F2C
S113380095838483D6011D968C91868317820E94AA
S1133810DA040894E11CF11CEDB7FEB738960FB634
S1133820F894FEBF0FBEEDBF87E090E0C80ED91E2E
S1133830D5018C9190E0E816F9061CF2EDB7FEB7BD
S113384038970FB6F894FEBF0FBEEDBF319688EBE4
S113385094E0ADB7BEB712969C938E93119781E70F
S113386091E093838283C45BDF4F88819981958340
S11338708483DE019E918E91978386830E94DA046D
S1133880EDB7FEB738960FB6F894FEBF0FBEEDBF86
S1133890DF91CF911F910F91FF90EF90DF90CF9028
S11338A0BF90AF909F908F9008951F920F920FB684
S11338B00F9211242F933F934F935F936F937F93B2
S11338C08F939F93AF93BF93EF93FF9380E286BB55
S11338D060917800709179007695679576956795F3
S11338E060588091EA049091EB040E94060580914F
S11338F0F504882341F08091EA049091EB040E943E
S1133900BC08807F01C080E88BB9FF91EF91BF9123
S1133910AF919F918F917F916F915F914F913F9163
S11339202F910F900FBE0F901F901895CF93DF9398
S1133930EC017093EB046093EA048630910544F043
S11339408EEF97E06CEE77E04AE350E00E940725A3
S1133950259A2D98109280008AE1809381008FEC43
S113396090E090938700809386009E0120642093CA
S11339707C0037B181E090E002C0880F991FCA959E
S1133980E2F7282F2095322337B938B1232328B9F9
S113399020917E00822B80937E0087E080937B00C1
S11339A08CEE80937A00DF91CF9108952F923F920D
S11339B04F925F926F927F928F929F92AF92BF923B
S11339C0CF92DF92EF92FF920F931F93DF93CF93E7
S11339D0CDB7DEB7CC59D0400FB6F894DEBF0FBEDA
S11339E0CDBF8C01CD56DF4F79836883C359D04056
S11339F0CB56DF4F59834883C559D0405901C0572E
S1133A00DF4F19821882C059D0409E012F5F3F4F6B
S1133A10C556DF4F39832883CB59D040AE014A576E
S1133A205F4FC756DF4F59834883C959D04041C0BF
S1133A30882321F5C057DF4F8881C059D040CF5625
S1133A40DF4F9881C159D040C456DF4F0FB6F89468
S1133A50DEBF0FBECDBFCF91DF911F910F91FF90BD
S1133A60EF90DF90CF90BF90AF909F908F907F901A
S1133A706F905F904F903F902F900895CB56DF4FFB
S1133A8068817981C559D040CD56DF4FA881B9816D
S1133A90C359D040FD010995C057DF4FE881F98132
S1133AA0C059D0403196C057DF4FF983E883C059DD
S1133AB0D040F8010F5F1F4F8491853209F0B8CFD1
S1133AC0F80184918532F9F40F5F1F4FCB56DF4F15
S1133AD068817981C559D040CD56DF4F288139811D
S1133AE0C359D040F9010995C057DF4F4881598126
S1133AF0C059D0404F5F5F4FC057DF4F5983488351
S1133B00C059D040D6CFC956DF4F5881C759D0408D
S1133B10547BC956DF4F5883C759D040C856DF4F2E
S1133B208881C859D0408C7FC856DF4F8883C859D4
S1133B30D040F80184918B32A1F08C3230F4803281
S1133B4049F0833209F040C025C08D32B9F080338A
S1133B50D9F52CC0C956DF4F8881C759D04083702E
S1133B6081F5C956DF4FF881C759D040FC7FF16019
S1133B70C956DF4FF883C759D04023C0C956DF4F19
S1133B802881C759D0402860C956DF4F2883C759B8
S1133B90D04017C0C956DF4F3881C759D040306470
S1133BA0C956DF4F3883C759D0400BC0C856DF4FC2
S1133BB04881C859D0404160C856DF4F4883C8592E
S1133BC0D0400F5F1F4FB5CFF80184918A3239F08E
S1133BD0C257DF4F19821882CE58D0404AC0D5014F
S1133BE00D90BC91A02DC257DF4FB983A883CE5846
S1133BF0D040B7FF14C0B095A195BF4FC257DF4F57
S1133C00B983A883CE58D040C956DF4FB881C7596D
S1133C10D040B860C956DF4FB883C759D040E2E0FE
S1133C20F0E0AE0EBF1E0F5F1F4F2AC00F5F1F4F85
S1133C30F9012491C257DF4F88819981CE58D04031
S1133C4073E0880F991F7A95E1F7C257DF4F4881D7
S1133C505981CE58D040440F551F480F591F405327
S1133C605040420F511DC257DF4F59834883CE58ED
S1133C70D0409801F8018491803310F08A33B0F277
S1133C80C956DF4FF881C759D040F695F695F69599
S1133C90F170CE56DF4FF883C259D040FF2359F05C
S1133CA0C856DF4F2881C859D0402E7FC856DF4FF1
S1133CB02883C859D040F80184918E3221F06624BB
S1133CC06A94762C2EC00F5F1F4FF80184918A32BC
S1133CD019F0662477241EC0D5016D907C900F5F87
S1133CE01F4FE2E0F0E0AE0EBF1E1BC00F5F1F4F80
S1133CF0F9012491C30143E0880F991F4A95E1F724
S1133D00660C771C680E791E40ED5FEF640E751E1D
S1133D10620E711C9801F8018491803310F08A338B
S1133D2028F3C956DF4FF881C759D040FF7CC956E4
S1133D30DF4FF883C759D040F80184918836B1F039
S1133D40893618F48C34F9F405C08C3619F08A37A6
S1133D50D1F417C0C956DF4FF881C759D040F0617C
S1133D60C956DF4FF883C759D0400BC0C956DF4F3F
S1133D702881C759D0402062C956DF4F2883C759CC
S1133D80D0400F5F1F4FA8014F5F5F4FC757DF4FF2
S1133D9059834883C958D040F801F491C357DF4F81
S1133DA0F883CD58D040F53609F45FC0F636ECF40C
S1133DB0F33509F471C0F43554F4F53409F455C0FD
S1133DC0F73409F407C2FF2309F448C041C0C357BC
S1133DD0DF4F2881CD58D040233609F449C024361A
S1133DE00CF0DEC02835A1F526C0C357DF4F38815B
S1133DF0CD58D0403037F9F0313744F4373609F430
S1133E00E9C1373684F0393619F5CAC0C357DF4FD4
S1133E104881CD58D040453771F0483709F47FC008
S1133E204337B1F444C0CC24DD24C357DF4F188298
S1133E30CD58D040E7C12EEEC22E21E0D22EC3577A
S1133E40DF4F5881CD58D040503709F078C06CC04E
S1133E50C757DF4F08811981C958D04092EC892E89
S1133E6091E0992EF40133962BC4CC24DD24CAC1ED
S1133E70D5018C918983C757DF4F08811981C958AF
S1133E80D040E2E0F0E0AE0EBF1E4E010894811C6B
S1133E90911CFE01329614C4C856DF4FF881C859EC
S1133EA0D040F260C856DF4FF883C859D040A5010E
S1133EB04E5F5F4FD5018D909C908114910421F445
S1133EC08BEB882E81E0982E77FE04C000E1602EF3
S1133ED007E2702EC856DF4FB881C859D040B1FDF3
S1133EE004C0F40120E030E012C0F40120E030E02E
S1133EF003C031962F5F3F4F8491882309F4CCC3CC
S1133F0026153705B4F3C8C331962F5F3F4F808120
S1133F10882309F4C1C326153705B4F3BDC31EEDC8
S1133F20C12E11E0D12E0BC0F501808191817C015D
S1133F3000E010E022E030E0A20EB31E18C0C95623
S1133F40DF4F3881C759D04034FF0AC0D501ED9006
S1133F50FD900D911C91E4E0F0E0AE0EBF1E07C091
S1133F60F501619171917B0100E010E05F0180E057
S1133F70C357DF4F3881CD58D040353709F081E041
S1133F80880F880FC956DF4F4881C759D0404B7FEF
S1133F90482B4C7FC956DF4F4883C759D04040C097
S1133FA0C956DF4F5881C759D04054FF08C0D501C6
S1133FB0ED90FD900D911C91E4E0F0E00AC0D50174
S1133FC08D919C917C010027F7FC0095102FE2E075
S1133FD0F0E0AE0EBF1E17FF14C0C956DF4FF881C4
S1133FE0C759D040FC7FF260C956DF4FF883C759E8
S1133FF0D04010950095F094E094E11CF11C011D53
S1134000111DC956DF4F2881C759D0402B7FC9568F
S1134010DF4F2883C759D040BEEECB2EB1E0DB2E54
S11340205524E114F1040105110511F055245394AC
S1134030852D879588278795C956DF4F3881C759BD
S1134040D0403F77382BC956DF4F3883C759D0400B
S11340506114710441F4552031F4A6E88A2E912CA0
S11340608C0E9D1E6FC0C956DF4F8881C759D04042
S113407086958695817090E0009741F0019761F1F3
S1134080F6E88F2E912C8C0E9D1E40C0E6E88E2EF5
S1134090912C8C0E9D1EC801B7012AE030E040E04F
S11340A050E00E949927F601E60FF71F8081D401A2
S11340B08E934D01C801B7012AE030E040E050E0A2
S11340C00E949927C901DA017C018D01E114F104F0
S11340D00105110501F71AC076E8872E912C8C0E84
S11340E09D1EF701EF70F070EC0DFD1D8081F40151
S11340F082934F0164E016950795F794E7946A95C7
S1134100D1F7E114F1040105110559F777FE1AC03E
S1134110C856DF4FF881C859D040F0FF13C020E0E3
S113412030E0C956DF4F8881C759D040837011F001
S113413021E030E0C257DF4F68807980CE58D0400C
S1134140621A730AC756DF4F88819981C959D040D2
S11341508819990905C0D401E0E3EE934D01019655
S113416086159705C4F3C956DF4FF881C759D04067
S1134170F6FF15C0552099F0C357DF4F2881CD585D
S1134180D040283711F0283551F4D401C357DF4FFC
S1134190E881CD58D040EE93E0E3EE934D01C5564F
S11341A0DF4F28813981CB59D0408216930640F4E1
S11341B08EE198E066E078E048EB52E00E94072543
S11341C0C757DF4F08811981C958D040FE01EA570B
S11341D0FF4F76C2C357DF4F3881CD58D04032509D
S11341E0C357DF4F3883CD58D0406114710439F47C
S11341F051E0652E712C41E0C42ED12C08C031E071
S1134200C32ED12C77FE03C026E0622E712CA501AB
S11342104C5F5F4FC957DF4F59834883C758D0401D
S1134220D501ED90FD900D911C91C801B70120E0DE
S113423030E040E050E00E94D025882384F4C95641
S1134240DF4FB881C759D040BC7FB260C956DF4F39
S1134250B883C759D04017FB109517F9109591E012
S1134260892E912C8C0E9D1EC257DF4FE881F98157
S1134270CE58D0408E0E9F1EC557DF4FC882CB58F4
S1134280D040C956DF4FF881C759D040F295F69512
S1134290F695F170C457DF4FF883CC58D040C8016D
S11342A0B70120E030E040E85FE30E941F27882345
S11342B0A4F1442455240EC0C801B70129EF32E00B
S11342C045E150E50E94D4257B018C012AE030E0D1
S11342D0420E531EC801B70127EB33E44AEB51E504
S11342E00E941F2787FFE8CF0DC0C801B70120E057
S11342F030E040E251E40E94D4257B018C01089413
S1134300411C511CC801B70120E030E040E251E4F7
S11343100E941F2787FFE9CF40C0C801B70120E0F2
S113432030E040E050E00E94D025882319F4442472
S1134330552433C0442455240EC0C801B70129EFC5
S113434032E045E150E50E9423277B018C0146EFD2
S11343505FEF440E551EC801B7012FEF36EE4BED4B
S11343605EE20E94D025181644F70DC0C801B701BB
S113437020E030E040E251E40E9423277B018C01DD
S1134380089441085108C801B70120E030E040E832
S11343905FE30E94D02587FDE9CFC557DF4F5881E1
S11343A0CB58D040552351F14614570464F48CEF94
S11343B048168FEF58063CF064187508C357DF4F52
S11343C01882CD58D040089461087108C457DF4F53
S11343D09881CC58D040992361F4A1E0C457DF4FB1
S11343E0A883CC58D040C557DF4FA883CB58D040C2
S11343F005C0C557DF4F1882CB58D040C357DF4F95
S1134400B881CD58D040BB2329F064015301222444
S113441033246DC057FE31C0F40120E321936F01B2
S11344206114710451F4C457DF4F3881CC58D04023
S1134430332319F4AA24BB2405C0D601EEE2ED937C
S11344406D01530180E090E007C0D601E0E3ED93F5
S11344506D010894A108B1080197481659061CF487
S1134460A114B10491F760947094461457040CF4A9
S11344708FC081E0282E312C3AC022243324241802
S113448035086401530133C0C801B7010E943C26BA
S11344909B01862F805DD6018D936D01211431041B
S11344A071F4A114B10439F4C457DF4FB881CC5866
S11344B0D040BB2321F0F6014EE241936F01B901D4
S11344C0882777FD8095982F0E946F269B01AC0169
S11344D0C801B7010E946B2520E030E040E251E4BE
S11344E00E9423277B018C010894211C311CA214F7
S11344F0B30454F6C801B70120E030E040EA50E4C8
S11345000E941F2788230CF443C0F601319781E0F1
S113451090E020812E3259F0820F80838A3319F083
S113452080E090E004C050E3508381E090E08E1678
S11345309F0610F43197EDCF892B51F1C357DF4F0C
S11345408881CD58D0408823B1F0F6010DC0DF0139
S11345508E918E3229F4329780813296808302C004
S11345608083DF01FD0131978E169F0680F3089446
S1134570411C511C0AC00894C11CD11CF60102C084
S1134580829181838E169F06D8F3E1E3D401EC93E4
S1134590C557DF4FF881CB58D040FF2351F0F601C7
S11345A0429196016F014033D1F369014E3209F40F
S11345B06F01C357DF4F2881CD58D040222311F417
S11345C0F60142C0F601C357DF4F3881CD58D040C1
S11345D03193319657FE09C02DE2D60111962C93E2
S11345E0509441945108539404C02BE2D60111967F
S11345F02C933A9600E010E00F5F1F4FC2016AE06F
S113460070E00E948627805D8193C2016AE070E0B9
S11346100E9486272B016115710571F7023011057F
S11346205CF39F01201B310BAF014B505040D9016B
S11346308D919D01DA018C930150104041505040FE
S113464010161106A4F33A97C856DF4FB881C8591B
S1134650D040B0FF29C020E030E0C956DF4F888148
S1134660C759D040837011F021E030E0C257DF4FCA
S113467048815981CE58D040421B530B9A01CF0137
S11346808819990905C0D40140E34E934D01019660
S113469082179307C4F308C0C757DF4F08811981F5
S11346A0C958D0405A010CC0C757DF4F088119813F
S11346B0C958D040C957DF4FA880B980C758D040E7
S11346C07F01E818F908C257DF4F88819981CE58D5
S11346D0D0408E159F051CF4CC24DD2416C0C2578F
S11346E0DF4F48815981CE58D0404E195F0920E0F0
S11346F030E0C956DF4F8881C759D040837011F02C
S113470021E030E06A01C21AD30ACE56DF4F988105
S1134710C259D0409923E9F021C080E2CB56DF4F43
S113472068817981C559D040CD56DF4FA881B981C0
S1134730C359D040FD010995C057DF4FE881F98185
S1134740C059D0403196C057DF4FF983E883C05930
S1134750D0400894C108D108D7FEDFCFC956DF4F37
S11347608881C759D040837009F1813011F08DE2FE
S113477001C08BE2CB56DF4F68817981C559D040A7
S1134780CD56DF4F28813981C359D040F9010995AD
S1134790C057DF4F48815981C059D0404F5F5F4FA8
S11347A0C057DF4F59834883C059D040C856DF4FA4
S11347B05881C859D04051FD22C045C0F401089425
S11347C0811C911CE4918E2FCB56DF4F6881798137
S11347D0C559D040CD56DF4FA881B981C359D040C7
S11347E0FD010995C057DF4FE881F981C059D040D8
S11347F03196C057DF4FF983E883C059D0400894FD
S1134800E108F108F7FEDACF23C0D4018D914D0100
S1134810CB56DF4F68817981C559D040CD56DF4FE3
S1134820E881F981C359D0400995C057DF4F2881E9
S11348303981C059D0402F5F3F4FC057DF4F398374
S11348402883C059D0400894E108F108F7FEDDCF71
S1134850CE56DF4F3881C259D0403323E9F429C9F9
S113486080E2CB56DF4F68817981C559D040CD565F
S1134870DF4F48815981C359D040FA010995C05787
S1134880DF4F88819981C059D0400196C057DF4FCE
S113489099838883C059D0400894C108D108D7FEB1
S11348A0DFCF07C9982F8091C00085FFFCCF9A30D5
S11348B061F48091C00080648093C0008DE0809397
S11348C0C6008091C00085FFFCCF8091C000806449
S11348D08093C0009093C60008951F931091C10067
S11348E09091C10098609093C1009091C1009F790C
S11348F09093C10060E070E00E9452248091C00057
S113490086FFFCCF1093C1001F9108951F93CF938E
S1134910DF93EC011091C1008091C1008860809305
S1134920C1008091C1008F798093C10004C060E010
S113493070E00E945224FE01219684918823B9F7E5
S11349408091C00086FFFCCF1093C100DF91CF910E
S11349501F9108951092C50088E08093C40080934D
S1134960C10083E998E00E9486240895CF92DF92E3
S1134970EF92FF920F931F93CF93DF936C0100E0AC
S113498010E0C0E1D7E2EE24FF24C601BE010E947C
S113499086279B01C601BE010E9486276C01211552
S11349A0310531F40115110519F4C130D10531F483
S11349B0822F805D0E946D240F5F1F4FCE016AE03D
S11349C070E00E948627EB010894E11CF11C85E04D
S11349D0E816F104D1F6C801DF91CF911F910F9130
S11349E0FF90EF90DF90CF9008950F931F938B016A
S11349F00E9486248AE30E946D24C8010E94B62482
S1134A0089E598E00E9486241F910F9108950F93E1
S1134A101F938C01CB01BA010E94F52480E898E031
S1134A200E948624C8010E9486248AE00E946D2484
S1134A3081E090E01F910F9108951F93DF93CF932E
S1134A40CDB7DEB7FE013696819191911091C100E8
S1134A502091C10028602093C1002091C1002F79CA
S1134A602093C10062E574E240E050E09F010E949F
S1134A70D61C8091C00086FFFCCF1093C100CF915B
S1134A80DF911F910895EF92FF920F931F937C0182
S1134A908B01CA01B9010E94F52485E698E00E94C1
S1134AA08624C8010E94862400D000D08CE598E0BA
S1134AB0EDB7FEB792838183F482E3820E941D25C1
S1134AC00F900F900F900F9081E090E01F910F9145
S1134AD0FF90EF9008955058BB27AA270ED075C1B8
S1134AE066D130F06BD120F031F49F3F11F41EF405
S1134AF05BC10EF4E095E7FB51C1E92F77D180F358
S1134B00BA17620773078407950718F071F49EF5C6
S1134B108FC10EF4E0950B2EBA2FA02D0B01B90115
S1134B2090010C01CA01A0011124FF27591B99F01F
S1134B30593F50F4503E68F11A16F040A22F232F2B
S1134B40342F4427585FF3CF469537952795A7957B
S1134B50F0405395C9F77EF41F16BA0B620B730B22
S1134B60840BBAF09150A1F0FF0FBB1F661F771F93
S1134B70881FC2F70EC0BA0F621F731F841F48F448
S1134B80879577956795B795F7959E3F08F0B3CFCE
S1134B909395880F08F09927EE0F979587950895B8
S1134BA0D9D008F481E008950CD00FC107D140F0AA
S1134BB0FED030F021F45F3F19F0F0C0511139C13B
S1134BC0F3C014D198F39923C9F35523B1F3951B7A
S1134BD0550BBB27AA2762177307840738F09F5F1A
S1134BE05F4F220F331F441FAA1FA9F333D00E2E89
S1134BF03AF0E0E830D091505040E695001CCAF7F6
S1134C0029D0FE2F27D0660F771F881FBB1F2617BA
S1134C1037074807AB07B0E809F0BB0B802DBF018D
S1134C20FF2793585F4F2AF09E3F510568F0B6C0A6
S1134C3000C15F3FECF3983EDCF38695779567956A
S1134C40B795F7959F5FC9F7880F911D969587953E
S1134C5097F90895E1E0660F771F881FBB1F62175D
S1134C6073078407BA0720F0621B730B840BBA0B1B
S1134C70EE1F88F7E095089504D06894B111D9C067
S1134C800895BCD088F09F5790F0B92F9927B75159
S1134C90A0F0D1F0660F771F881F991F1AF0BA95FC
S1134CA0C9F712C0B13081F0C3D0B1E00895C0C0DB
S1134CB0672F782F8827B85F39F0B93FCCF38695F2
S1134CC077956795B395D9F73EF49095809570954F
S1134CD061957F4F8F4F9F4F0895E89409C097FBCC
S1134CE03EF490958095709561957F4F8F4F9F4FBF
S1134CF09923A9F0F92F96E9BB279395F695879503
S1134D0077956795B795F111F8CFFAF4BB0F11F4C5
S1134D1060FF1BC06F5F7F4F8F4F9F4F16C088236C
S1134D2011F096E911C0772321F09EE8872F762FA2
S1134D3005C0662371F096E8862F70E060E02AF0E3
S1134D409A95660F771F881FDAF7880F96958795CF
S1134D5097F90895990F0008550FAA0BE0E8FEEFA4
S1134D6016161706E807F907C0F012161306E4072B
S1134D70F50798F0621B730B840B950B39F40A2624
S1134D8061F0232B242B252B21F408950A2609F402
S1134D90A140A6958FEF811D811D089597F99F6706
S1134DA080E870E060E008959FEF80EC08950024AF
S1134DB00A941616170618060906089500240A947C
S1134DC012161306140605060895092E0394000C02
S1134DD011F4882352F0BB0F40F4BF2B11F460FF91
S1134DE004C06F5F7F4F8F4F9F4F089557FD9058BA
S1134DF0440F551F59F05F3F71F04795880F97FB9B
S1134E00991F61F09F3F79F0879508951216130654
S1134E101406551FF2CF4695F1DF08C01616170683
S1134E201806991FF1CF86957105610508940895B8
S1134E30E894BB2766277727CB0197F908958ADF83
S1134E4008F48FEF08950BD0C0CFB1DF28F0B6DFA0
S1134E5018F0952309F0A2CFA7CF1124EACFC6DF1B
S1134E60A0F3959FD1F3950F50E0551F629FF00179
S1134E70729FBB27F00DB11D639FAA27F00DB11DD2
S1134E80AA1F649F6627B00DA11D661F829F22275B
S1134E90B00DA11D621F739FB00DA11D621F839FE2
S1134EA0A00D611D221F749F3327A00D611D231FB8
S1134EB0849F600D211D822F762F6A2F11249F5706
S1134EC050408AF0E1F088234AF0EE0FFF1FBB1F29
S1134ED0661F771F881F91505040A9F79E3F5105C8
S1134EE070F05CCFA6CF5F3FECF3983EDCF3869581
S1134EF077956795B795F795E7959F5FC1F7FE2B73
S1134F00880F911D9695879597F9089597FB092E1B
S1134F1007260AD077FD04D02ED006D000201AF43C
S1134F20709561957F4F0895F6F7909581959F4F01
S1134F300895A1E21A2EAA1BBB1BFD010DC0AA1FD6
S1134F40BB1FEE1FFF1FA217B307E407F50720F0EE
S1134F50A21BB30BE40BF50B661F771F881F991F69
S1134F601A9469F760957095809590959B01AC01B2
S1134F70BD01CF010895AA1BBB1B51E107C0AA1FA5
S1134F80BB1FA617B70710F0A61BB70B881F991FE6
S1134F905A95A9F780959095BC01CD01089591117A
S1134FA006C080538A5010F0865C06C00895992785
S1134FB08827089585FDFBCF80629111F8CF815633
S1134FC08A51E0F708959111089581568A5108F4A1
S10D4FD0805285580895F894FFCF2D
S1134FDA252E3673002D2564003A252E2A730A00DD
S1134FEA5741524E00455252003E54657374204252
S1134FFA6552544F53204150525320687474703A86
S113500A2F2F7777772E626572746F732E6F72679C
S113501A000A0A5352435B252E36732D25645D2CF0
S113502A204453545B252E36732D25645D0D0A00E6
S113503A7669613A205B252E36732D25645D0D0A47
S113504A00444154413A20252E2A730D0A003C4E4D
S113505A554C4C3E003F3F3F00C601060226022043
S113506A00200000D20146026602200020000061EE
S113507A707A627274006E6F63616C6C0077696433
S113508A65310001776964653200023C4E554C4C27
S113509A3E003F3F3F007416781685169A167B1613
S11350AAFF16A616BD16FD16FE16C516FF163031D6
S11350BA3233343536373839616263646566303180
S11150CA323334353637383941424344454693
S9030000FC
